:100000000C942A000C9434000C9434000C943400AA
:100010000C9434000C9434000C9434000C94340090
:100020000C9434000C9434000C9434000C94340080
:100030000C9434000C9434000C9434000C94340070
:100040000C9434000C9434000C9434000C94340060
:100050000C94340011241FBECFE5D8E0DEBFCDBF25
:100060000E9436000C940D040C940000DF93CF9393
:10007000CDB7DEB7FFCFDF93CF93CDB7DEB72897ED
:100080000FB6F894DEBF0FBECDBF8A836B834C835F
:1000900019828B81883008F0F4C08C81813009F09E
:1000A00072C08A81282F30E038872F838F8198850E
:1000B0008130910549F12F813885223031052CF4AA
:1000C0008F819885009761F05BC02F813885223041
:1000D000310571F18F81988583309105E9F150C028
:1000E000AAE3B0E0EAE3F0E08081482F8B81282F7B
:1000F00030E081E090E0022E02C0880F991F0A9440
:10010000E2F7842B8C93BFC0A7E3B0E0E7E3F0E015
:100110008081482F8B81282F30E081E090E0022EF3
:1001200002C0880F991F0A94E2F7842B8C93ABC00E
:10013000A4E3B0E0E4E3F0E08081482F8B81282F36
:1001400030E081E090E0022E02C0880F991F0A94EF
:10015000E2F7842B8C9397C0A1E3B0E0E1E3F0E0F9
:100160008081482F8B81282F30E081E090E0022EA3
:1001700002C0880F991F0A94E2F7842B8C9383C0E6
:1001800081E0898380C08C81882309F077C08A81CF
:10019000282F30E03E832D838D819E818130910513
:1001A00059F12D813E81223031052CF48D819E81C3
:1001B000009769F060C02D813E812230310589F1C0
:1001C0008D819E818330910509F440C054C0AAE31B
:1001D000B0E0EAE3F0E08081482F8B81282F30E007
:1001E00081E090E0022E02C0880F991F0A94E2F786
:1001F000809584238C9347C0A7E3B0E0E7E3F0E069
:100200008081482F8B81282F30E081E090E0022E02
:1002100002C0880F991F0A94E2F7809584238C937B
:1002200032C0A4E3B0E0E4E3F0E08081482F8B81AA
:10023000282F30E081E090E0022E02C0880F991F45
:100240000A94E2F7809584238C931DC0A1E3B0E06B
:10025000E1E3F0E08081482F8B81282F30E081E0BE
:1002600090E0022E02C0880F991F0A94E2F7809551
:1002700084238C9308C081E0898305C081E0898351
:1002800002C081E08983898128960FB6F894DEBF89
:100290000FBECDBFCF91DF910895DF93CF93CDB740
:1002A000DEB728970FB6F894DEBF0FBECDBF8A83A6
:1002B0006B834C8319828B81883008F0F4C08C8169
:1002C000813009F072C08A81282F30E038872F836F
:1002D0008F8198858130910549F12F8138852230B1
:1002E00031052CF48F819885009761F05BC02F81D8
:1002F00038852230310571F18F81988583309105E1
:10030000E9F150C0ABE3B0E0EBE3F0E08081482FCF
:100310008B81282F30E081E090E0022E02C0880F10
:10032000991F0A94E2F7842B8C93BFC0A8E3B0E036
:10033000E8E3F0E08081482F8B81282F30E081E0D6
:1003400090E0022E02C0880F991F0A94E2F7842BD6
:100350008C93ABC0A5E3B0E0E5E3F0E08081482FEB
:100360008B81282F30E081E090E0022E02C0880FC0
:10037000991F0A94E2F7842B8C9397C0A2E3B0E014
:10038000E2E3F0E08081482F8B81282F30E081E08C
:1003900090E0022E02C0880F991F0A94E2F7842B86
:1003A0008C9383C081E0898380C08C81882309F08D
:1003B00077C08A81282F30E03E832D838D819E81F6
:1003C0008130910559F12D813E81223031052CF487
:1003D0008D819E81009769F060C02D813E81223021
:1003E000310589F18D819E818330910509F440C0EA
:1003F00054C0ABE3B0E0EBE3F0E08081482F8B81A9
:10040000282F30E081E090E0022E02C0880F991F73
:100410000A94E2F7809584238C9347C0A8E3B0E068
:10042000E8E3F0E08081482F8B81282F30E081E0E5
:1004300090E0022E02C0880F991F0A94E2F780957F
:1004400084238C9332C0A5E3B0E0E5E3F0E0808143
:10045000482F8B81282F30E081E090E0022E02C0EF
:10046000880F991F0A94E2F7809584238C931DC00E
:10047000A2E3B0E0E2E3F0E08081482F8B81282FF7
:1004800030E081E090E0022E02C0880F991F0A94AC
:10049000E2F7809584238C9308C081E0898305C0AE
:1004A00081E0898302C081E08983898128960FB623
:1004B000F894DEBF0FBECDBFCF91DF910895DF93DB
:1004C000CF9300D000D00F92CDB7DEB78A836B8375
:1004D00019828B81883008F072C08A81282F30E021
:1004E0003D832C838C819D818130910549F12C8144
:1004F0003D81223031052CF48C819D81009761F083
:100500005BC02C813D812230310571F18C819D8150
:1005100083309105E9F150C0ABE3B0E0EBE3F0E0EC
:100520008081482F8B81282F30E081E090E0022EDF
:1005300002C0880F991F0A94E2F784278C9341C068
:10054000A8E3B0E0E8E3F0E08081482F8B81282F1A
:1005500030E081E090E0022E02C0880F991F0A94DB
:10056000E2F784278C932DC0A5E3B0E0E5E3F0E04B
:100570008081482F8B81282F30E081E090E0022E8F
:1005800002C0880F991F0A94E2F784278C9319C040
:10059000A2E3B0E0E2E3F0E08081482F8B81282FD6
:1005A00030E081E090E0022E02C0880F991F0A948B
:1005B000E2F784278C9305C081E0898302C081E043
:1005C000898389810F900F900F900F900F90CF919A
:1005D000DF910895DF93CF93CDB7DEB727970FB69E
:1005E000F894DEBF0FBECDBF8A836B835D834C83DF
:1005F00019828B81883008F074C08A81282F30E0FE
:100600003F832E834E815F814130510559F18E81A8
:100610009F818230910534F42E813F81211531056F
:1006200069F05CC04E815F814230510579F18E8165
:100630009F818330910509F43DC050C0E9E3F0E0AB
:100640008081282F30E08B81882F90E0A90102C0A3
:10065000559547958A95E2F7CA018170EC81FD8135
:10066000808341C0E6E3F0E08081282F30E08B8179
:10067000882F90E0A90102C0559547958A95E2F729
:10068000CA018170EC81FD8180832DC0E3E3F0E03D
:100690008081282F30E08B81882F90E0A90102C053
:1006A000559547958A95E2F7CA018170EC81FD81E5
:1006B000808319C0E0E3F0E08081282F30E08B8157
:1006C000882F90E0A90102C0559547958A95E2F7D9
:1006D000CA018170EC81FD81808305C081E089833E
:1006E00002C081E08983898127960FB6F894DEBF26
:1006F0000FBECDBFCF91DF910895DF93CF9300D090
:1007000000D00F92CDB7DEB78A836B8319828A81BE
:10071000282F30E03D832C838C819D818130910591
:10072000D1F02C813D81223031052CF48C819D81CA
:10073000009761F01FC02C813D812230310581F08E
:100740008C819D818330910581F014C0EAE3F0E053
:100750008B81808311C0E7E3F0E08B8180830CC044
:10076000E4E3F0E08B81808307C0E1E3F0E08B817C
:10077000808302C081E0898389810F900F900F9060
:100780000F900F90CF91DF910895DF93CF9300D01A
:1007900000D00F92CDB7DEB78A836B8319828A812E
:1007A000282F30E03D832C838C819D818130910501
:1007B000D1F02C813D81223031052CF48C819D813A
:1007C000009761F01FC02C813D812230310581F0FE
:1007D0008C819D818330910581F014C0EBE3F0E0C2
:1007E0008B81808311C0E8E3F0E08B8180830CC0B3
:1007F000E5E3F0E08B81808307C0E2E3F0E08B81EA
:10080000808302C081E0898389810F900F900F90CF
:0E0810000F900F90CF91DF910895F894FFCFD5
:00000001FF
