:100000000C942A000C9447000C9447000C94470071
:100010000C94131A0C94E0190C94AD190C947A19E1
:100020000C9447190C9414190C94E1180C94AE1804
:100030000C9447000C94201E0C94771E0C94CE1E3A
:100040000C9447000C9447000C9447000C94470014
:100050000C94470011241FBECFE5D8E0DEBFCDBF12
:1000600011E0A0E6B0E0EEEFF5E402C005900D92DD
:10007000A038B107D9F711E0A0E8B1E001C01D92A6
:10008000A53BB107E1F70E940C210C94FD220C94D2
:100090000000EF92FF920F931F937B018C0120E0F1
:1000A00030E040E05FE40E94F50388238CF0C80153
:1000B000B70120E030E040E05FE40E94C1010E940F
:1000C00055049B01AC01205030404040504806C0D0
:1000D000C801B7010E9455049B01AC01B901CA01D6
:1000E0001F910F91FF90EF900895A0E0B0E0EBE733
:1000F000F0E00C94C622DC012B01FA019C919230B5
:1001000008F439C1EB018881823008F433C194309E
:1001100069F4843009F02FC111969C91119789815F
:10012000981709F428C1A6E6B0E025C1843009F487
:1001300021C18230A9F4923009F01DC19A01AD01AC
:1001400088E0EA010990AE01E90109929E0181501F
:10015000C1F7E201898111969C918923818308C1AD
:10016000923009F407C112962D903C901397EB0141
:100170008A819B811496AD90BD90CD90DC901797AD
:10018000EC80FD800E811F819101281B390BB90184
:1001900037FF04C066277727621B730B6032710537
:1001A0000CF061C0121613066CF537014801062EDB
:1001B00004C096948794779467940A94D2F721E0C8
:1001C00030E040E050E004C0220F331F441F551FB1
:1001D0006A95D2F721503040404050402E213F21B7
:1001E00040235123211531054105510521F021E01E
:1001F00030E040E050E079018A01E628F72808293C
:1002000019293CC0232BD1F1260E371E350146019A
:10021000062E04C096948794779467940A94D2F734
:1002200021E030E040E050E004C0220F331F441FC3
:10023000551F6A95D2F721503040404050402A2146
:100240003B214C215D21211531054105510521F04E
:1002500021E030E040E050E059016A01A628B728CB
:10026000C828D9280BC0821593052CF01C01AA249C
:10027000BB24650103C0EE24FF24870111969C91E5
:10028000D20111968C91981709F445C0992339F041
:10029000A80197012A193B094C095D0906C0A6016E
:1002A00095012E193F09400B510B57FD08C01182D3
:1002B0003382228224833583468357831DC081E0A5
:1002C00081833382228288279927DC01821B930B4A
:1002D000A40BB50B84839583A683B7830DC0220F2F
:1002E000331F441F551F24833583468357838281E0
:1002F000938101979383828324813581468157813D
:10030000DA01C9010197A109B1098F5F9F4FAF4F72
:10031000BF4328F30BC0918333822282EA0CFB1C7B
:100320000C1D1D1DE482F5820683178383E0808304
:10033000248135814681578157FF1AC0C901AA27F8
:1003400097FDA095BA2F81709070A070B0705695EF
:10035000479537952795822B932BA42BB52B848318
:100360009583A683B7838281938101969383828349
:10037000DF0101C0D201CD01CDB7DEB7E2E10C94BF
:10038000E222A0E2B0E0E7ECF1E00C94D222698333
:100390007A838B839C832D833E834F835887E9E048
:1003A000EE2EF12CEC0EFD1ECE010196B7010E943F
:1003B00046068E010F5E1F4FCE010596B8010E94C2
:1003C00046068A8991E089278A8BC701B801AE0168
:1003D000475E5F4F0E9475000E947105A096E6E09F
:1003E0000C94EE22A0E2B0E0E8EFF1E00C94D2220F
:1003F00069837A838B839C832D833E834F835887C5
:10040000F9E0EF2EF12CEC0EFD1ECE010196B701A6
:100410000E9446068E010F5E1F4FCE010596B80161
:100420000E944606C701B801AE01475E5F4F0E94B9
:1004300075000E947105A096E6E00C94EE22A0E201
:10044000B0E0E5E2F2E00C94C62269837A838B8304
:100450009C832D833E834F835887CE010196BE0136
:10046000675F7F4F0E944606CE010596BE016F5E14
:100470007F4F0E9446069985923088F089898230A4
:10048000C8F0943019F4823051F404C0843029F457
:10049000923081F486E690E0C6C0923049F420E0C4
:1004A0009A858A89981321E02A87CE010996BBC0D4
:1004B000823049F420E09A858A89981321E02A8BBA
:1004C000CE014196B0C02D843E844F8458886D88FB
:1004D0007E888F88988CEE24FF248701AA24BB2471
:1004E000650140E050E060E070E0E0E0F0E0C10174
:1004F00081709070892BE9F0E60CF71C081D191D1E
:100500009A01AB012A0D3B1D4C1D5D1D80E090E062
:10051000A0E0B0E0E614F7040805190520F481E036
:1005200090E0A0E0B0E0BA01A901480F591F6A1F8E
:100530007B1FAA0CBB1CCC1CDD1C97FE08C081E0F5
:1005400090E0A0E0B0E0A82AB92ACA2ADB2A3196B6
:10055000E032F10549F0660C771C881C991C569412
:10056000479437942794C3CFFA85EA892B893C892D
:100570008B859C85280F391F2E5F3F4F17C0CA01FE
:1005800081709070892B61F016950795F794E79428
:1005900080E090E0A0E0B0E8E82AF92A0A2B1B2BC3
:1005A00076956795579547952F5F3F4F77FDE7CF36
:1005B0000CC0440F551F661F771F17FD4160EE0CDE
:1005C000FF1C001F111F21503040403090E05907A0
:1005D00090E0690790E4790760F32B8F3C8FDB0193
:1005E000CA018F779070A070B07080349105A1051A
:1005F000B10561F447FD0AC0E114F10401051105DC
:1006000029F0405C5F4F6F4F7F4F40781A8EFE1786
:1006100011F081E08A8F4D8F5E8F6F8F78A383E01A
:10062000898FCE0149960E947105A096E2E10C9453
:10063000E222A8E1B0E0EFE1F3E00C94CE2269837E
:100640007A838B839C832D833E834F835887B9E0C5
:10065000EB2EF12CEC0EFD1ECE010196B7010E948F
:1006600046068E010F5E1F4FCE010596B8010E940F
:1006700046062985223008F47EC03989323010F4CC
:10068000B8017CC08A859A8989278A87243011F02D
:10069000223031F4231709F06EC066E670E06EC0B8
:1006A000343039F41D861E861F86188A1C861B86E8
:1006B00004C0323021F484E08987B7015FC02B8504
:1006C0003C858B899C89281B390B3C872B87ED84C3
:1006D000FE840F851889AD88BE88CF88D88CEA142F
:1006E000FB040C051D0540F4EE0CFF1C001F111F40
:1006F000215030403C872B8720E030E040E050E044
:1007000080E090E0A0E0B0E460E070E0EA14FB0478
:100710000C051D0540F0282B392B4A2B5B2BEA18C2
:10072000FB080C091D09B695A79597958795EE0CC2
:10073000FF1C001F111F6F5F7F4F6F31710531F775
:10074000DA01C9018F779070A070B0708034910584
:10075000A105B10561F427FD0AC0E114F10401050A
:10076000110529F0205C3F4F4F4F5F4F20782D87B8
:100770003E874F87588BBE01675F7F4FCB010E943A
:1007800071056896EAE00C94EA22A8E1B0E0EBEC8F
:10079000F3E00C94D22269837A838B839C832D832C
:1007A0003E834F83588789E0E82EF12CEC0EFD1E26
:1007B000CE010196B7010E9446068E010F5E1F4FC3
:1007C000CE010596B8010E9446068985823040F028
:1007D0008989823028F0C701B8010E94BE0601C095
:1007E0008FEF6896E6E00C94EE22A8E1B0E0EBEF24
:1007F000F3E00C94D22269837A838B839C832D83CC
:100800003E834F83588789E0E82EF12CEC0EFD1EC5
:10081000CE010196B7010E9446068E010F5E1F4F62
:10082000CE010596B8010E9446068985823040F0C7
:100830008989823028F0C701B8010E94BE0601C034
:100840008FEF6896E6E00C94EE22A8E1B0E0EBE2D0
:10085000F4E00C94D22269837A838B839C832D836A
:100860003E834F83588789E0E82EF12CEC0EFD1E65
:10087000CE010196B7010E9446068E010F5E1F4F02
:10088000CE010596B8010E9446068985823040F067
:100890008989823028F0C701B8010E94BE0601C0D4
:1008A00081E06896E6E00C94EE22ACE0B0E0EBE587
:1008B000F4E00C94D62269837A838B839C83CE01E7
:1008C0000196BE016B5F7F4F0E9446068D8182308C
:1008D00061F1823050F1843021F48E81882351F10E
:1008E0002EC02F81388537FD20C06E812F31310514
:1008F0001CF06623F9F023C08EE190E0821B930B7D
:1009000029853A854B855C8504C056954795379572
:1009100027958A95D2F76623B1F05095409530958A
:1009200021953F4F4F4F5F4F0EC020E030E040E039
:1009300050E009C02FEF3FEF4FEF5FE704C020E02A
:1009400030E040E050E8B901CA012C96E2E00C9496
:10095000F222A8E0B0E0EFEAF4E00C94CE227B01B2
:100960008C01611571058105910519F482E0898377
:1009700060C083E089838EE1C82ED12CDC82CB82DB
:10098000ED82FE820F831887C801B7010E942205FD
:10099000FC013197F7FF3BC0222733272E1B3F0B6B
:1009A00057016801022E04C0D694C794B794A79447
:1009B0000A94D2F740E050E060E070E081E090E01F
:1009C000A0E0B0E004C0880F991FAA1FBB1F2A95A2
:1009D000D2F70197A109B1098E219F21A023B1234C
:1009E0000097A105B10521F041E050E060E070E022
:1009F0004A295B296C297D294D835E836F83788723
:100A00008EE190E08E1B9F0B9C838B8312C03097EE
:100A100081F00E2E04C0EE0CFF1C001F111F0A9463
:100A2000D2F7ED82FE820F831887CE1ADF0ADC82AE
:100A3000CB821A82CE0101960E9471052896EAE0C7
:100A40000C94EA22EF92FF920F931F937B018C018B
:100A500080E0E81680E0F80681E0080780E01807EB
:100A600088F48FEFE816F1040105110531F028F044
:100A700088E090E0A0E0B0E017C080E090E0A0E067
:100A8000B0E012C080E0E81680E0F80680E00807D9
:100A900081E0180728F088E190E0A0E0B0E004C011
:100AA00080E190E0A0E0B0E020E230E040E050E003
:100AB000281B390B4A0B5B0B04C016950795F7945E
:100AC000E7948A95D2F7F701E259FF4F8081281BFE
:100AD000310941095109C9011F910F91FF90EF9010
:100AE0000895DF92EF92FF920F931F93FC01E48031
:100AF000F58006811781D1808081823048F480E0C2
:100B000090E0A0E1B0E0E82AF92A0A2B1B2BA5C04F
:100B1000843009F49FC0823021F4EE24FF24870141
:100B200005C0E114F1040105110519F4E0E0F0E05D
:100B300096C0628173819FEF623879070CF05BC0C9
:100B400022E83FEF261B370B2A3131052CF020E03D
:100B500030E040E050E02AC0B801A701022E04C0F6
:100B600076956795579547950A94D2F781E090E07E
:100B7000A0E0B0E004C0880F991FAA1FBB1F2A95F0
:100B8000D2F70197A109B1098E219F21A023B1239A
:100B90000097A105B10521F081E090E0A0E0B0E070
:100BA0009A01AB01282B392B4A2B5B2BDA01C901A7
:100BB0008F779070A070B07080349105A105B10559
:100BC00039F427FF09C0205C3F4F4F4F5F4F04C0EF
:100BD000215C3F4F4F4F5F4FE0E0F0E02030A0E05E
:100BE0003A07A0E04A07A0E45A0710F0E1E0F0E07D
:100BF00079018A0127C06038710564F5FB01E1586D
:100C0000FF4FD801C7018F779070A070B07080340B
:100C10009105A105B10539F4E7FE0DC080E490E02F
:100C2000A0E0B0E004C08FE390E0A0E0B0E0E80E08
:100C3000F91E0A1F1B1F17FF05C016950795F7948D
:100C4000E794319687E016950795F794E7948A958F
:100C5000D1F705C0EE24FF248701EFEFF0E06E2FFF
:100C6000679566276795902F9F77D794DD24D79453
:100C70008E2F8695492F462B582F5D29B701CA0123
:100C80001F910F91FF90EF90DF900895FC01DB0121
:100C9000408151812281622F6F7770E0221F2227CD
:100CA000221F9381892F880F822B282F30E0991FD4
:100CB0009927991F11969C93119721153105A9F534
:100CC000411551056105710511F482E037C082E8D4
:100CD0009FEF13969C938E9312979A01AB0167E056
:100CE000220F331F441F551F6A95D1F783E08C9361
:100CF0000DC0220F331F441F551F12968D919C91DA
:100D00001397019713969C938E931297203080E04F
:100D1000380780E0480780E4580758F314962D936D
:100D20003D934D935C93179708952F3F310579F4C8
:100D3000411551056105710519F484E08C930895FE
:100D400064FF03C081E08C9312C01C9210C02F5727
:100D5000304013963C932E93129783E08C9387E058
:100D6000440F551F661F771F8A95D1F7706414963C
:100D70004D935D936D937C93179708951F93DC01BA
:100D8000FB019C91923008F447C08081823008F4C6
:100D900043C0943051F411961C91843099F58181AF
:100DA000682F70E0611B71093FC0843021F09230E0
:100DB00031F48230B9F18181882389F12DC01196F7
:100DC0001C9111978230F1F081811817D9F4129695
:100DD0002D913C911397828193818217930794F010
:100DE00028173907BCF014968D919D910D90BC91F8
:100DF000A02D2481358146815781281739074A075C
:100E00005B0718F4112341F00AC082179307A40767
:100E1000B50740F4112319F061E070E005C06FEFF1
:100E20007FEF02C060E070E0CB011F910895DF9377
:100E3000CF93CDB7DEB72E970FB6F894DEBF0FBEB7
:100E4000CDBF80E067E041E00E94070C80E090E0C9
:100E5000A0E0B0E48B879C87AD87BE876B857C85DF
:100E60008D859E8520E030E04AEF54E40E941F0209
:100E7000DC01CB018F839887A987BA876F8178853A
:100E800089859A8520E030E040E85FE30E942504F0
:100E900088232CF481E090E09E838D833FC06F8196
:100EA000788589859A8520E03FEF4FE757E40E94D7
:100EB000C50318164CF56B857C858D859E8520E0D5
:100EC00030E040E251E40E941F02DC01CB01BC0192
:100ED000CD010E944900DC01CB019E838D830FC0B0
:100EE00088EC90E09C838B838B819C810197F1F748
:100EF0009C838B838D819E8101979E838D838D81C1
:100F00009E81009769F714C06F81788589859A85DD
:100F10000E944900DC01CB019E838D838D819E81DF
:100F20009A83898389819A810197F1F79A838983CA
:100F300080E067E040E00E94070C2E960FB6F89420
:100F4000DEBF0FBECDBFCF91DF910895DF93CF936A
:100F50000F92CDB7DEB789838981982F917080E099
:100F600061E0492F0E94070C89818695982F917026
:100F700080E062E0492F0E94070C89818695869562
:100F8000982F917080E063E0492F0E94070C8981BF
:100F9000869586958695982F917080E064E0492F1C
:100FA0000E94070C0F90CF91DF910895DF93CF93AC
:100FB0000F92CDB7DEB7898380E065E040E00E9404
:100FC000070C80E066E040E00E94070C8981829572
:100FD0008F700E94A6070E94170789810E94A607AA
:100FE0000E9417070F90CF91DF910895DF93CF9361
:100FF0000F92CDB7DEB7898380E065E041E00E94C3
:10100000070C80E066E040E00E94070C8981829531
:101010008F700E94A6070E94170789810E94A60769
:101020000E9417070F90CF91DF910895DF93CF9320
:10103000CDB7DEB72E970FB6F894DEBF0FBECDBF8B
:1010400080E090E0A0E2B2E48B879C87AD87BE870A
:101050006B857C858D859E8520E030E04AEF54E4E9
:101060000E941F02DC01CB018F839887A987BA8772
:101070006F81788589859A8520E030E040E85FE3DC
:101080000E94250488232CF481E090E09E838D83C8
:101090003FC06F81788589859A8520E03FEF4FE7D3
:1010A00057E40E94C50318164CF56B857C858D8529
:1010B0009E8520E030E040E251E40E941F02DC0106
:1010C000CB01BC01CD010E944900DC01CB019E8314
:1010D0008D830FC088EC90E09C838B838B819C81F7
:1010E0000197F1F79C838B838D819E8101979E836D
:1010F0008D838D819E81009769F714C06F817885FB
:1011000089859A850E944900DC01CB019E838D83ED
:101110008D819E819A83898389819A810197F1F7D4
:101120009A83898380E065E040E00E94070C80E0BC
:1011300066E040E00E94070C82E00E94A6070E9441
:10114000170782E00E94A6070E94170788E00E9406
:10115000A6070E9417078CE00E94D60781E00E9434
:10116000D6072E960FB6F894DEBF0FBECDBFCF9137
:10117000DF910895DF93CF93CDB7DEB781E00E9472
:10118000D607CF91DF910895DF93CF9300D000D0A1
:10119000CDB7DEB79C838B831A8219828B819C81A9
:1011A0000097D9F00EC08981282F30E08B819C8177
:1011B000FC01E20FF31F80810E94F60789818F5F97
:1011C00089838981282F30E08B819C81FC01E20F8B
:1011D000F31F8081882339F702C082E08A838A81E5
:1011E0000F900F900F900F90CF91DF9108950F9374
:1011F0001F93DF93CF93CDB7DEB760970FB6F89408
:10120000DEBF0FBECDBF6D877E878F87988B8AE04C
:10121000FE013396DF01982F1D929A95E9F71A8205
:101220008D859E85AF85B8890097A105B10521F40C
:1012300080E30E94F6077BC08D859E85AF85B889C7
:10124000BB230CF054C08DE20E94F6078D859E856D
:10125000AF85B889B095A095909581959F4FAF4F78
:10126000BF4F8D879E87AF87B88B41C08A81082F7B
:1012700010E08D859E85AF85B8892AE030E040E09A
:1012800050E0BC01CD010E948922DC01CB01282F56
:10129000CE010396FC01E00FF11F20838A81482FC5
:1012A00050E08A81282F30E0CE010396FC01E20F46
:1012B000F31F8081282F205DCE010396FC01E40FEF
:1012C000F51F20838D859E85AF85B8892AE030E0A3
:1012D00040E050E0BC01CD010E948922DA01C90141
:1012E0008D879E87AF87B88B8A818F5F8A838D8534
:1012F0009E85AF85B889181619061A061B060CF4C8
:10130000B5CF8A8189838981882F90E09C01215003
:101310003040CE010396FC01E20FF31F80810E9452
:10132000F6078981815089838981882361F76096D6
:101330000FB6F894DEBF0FBECDBFCF91DF911F91E6
:101340000F910895DF93CF93CDB7DEB7A4970FB673
:10135000F894DEBF0FBECDBF9CA38BA380E2FE013D
:101360003396DF01982F1D929A95E9F71A8280E64D
:1013700090E00E94C4081A8223C08BA19CA18170B6
:101380009070882359F08A81282F30E0CE0103968F
:10139000FC01E20FF31F81E0808309C08A81282FBE
:1013A00030E0CE010396FC01E20FF31F10828BA107
:1013B0009CA1959587959CA38BA38A818F5F8A8337
:1013C0008A818031D0F280E061E00E94CF0A80E122
:1013D00089838981882F90E09C0121503040CE0183
:1013E0000396FC01E20FF31F8081882321F480E340
:1013F0000E94F60703C081E30E94F60789818150AD
:1014000089838981882329F7A4960FB6F894DEBFD3
:101410000FBECDBFCF91DF910895DF93CF93CDB7AE
:10142000DEB7A5970FB6F894DEBF0FBECDBF6D8FA8
:101430007E8F8F8F98A3CE0105969AA389A3EFE69E
:10144000F1E0FCA3EBA3F0E1FDA3EBA1FCA1008084
:101450008BA19CA101969CA38BA3E9A1FAA1008278
:1014600089A19AA101969AA389A39DA191509DA3B8
:10147000EDA1EE2351F71B8220C08D8D8F708A83E2
:101480008D8D9E8DAF8DB8A1689413F8B595A795F5
:10149000979587951694D1F78D8F9E8FAF8FB8A3B0
:1014A0008B81282F30E0CE014596FC01E20FF31F1F
:1014B0008A8180838B818F5F8B838B818830E8F278
:1014C00083E690E00E94C40887E08C831AC08C8178
:1014D000282F332727FD3095CE014596FC01E20FDA
:1014E000F31F808189838981282F30E0CE01059602
:1014F000FC01E20FF31F80810E94F6078C8181506E
:101500008C838C8188231CF7A5960FB6F894DEBFD8
:101510000FBECDBFCF91DF910895DF93CF93CDB7AD
:10152000DEB727970FB6F894DEBF0FBECDBF9C8302
:101530008B836D834E832F838D81882F90E0880F5E
:10154000991F880F991F880F991F8A838A81806449
:101550008A838A810E94D60719820EC08981282F2A
:1015600030E08B819C81FC01E20FF31F80810E949F
:10157000F60789818F5F89838981883078F38E812E
:101580006F810E94CF0A8D810E94F60727960FB6C1
:10159000F894DEBF0FBECDBFCF91DF910895DF93EA
:1015A000CF9300D000D0CDB7DEB78B836C831A8287
:1015B0008C81882319F48B81898309C08C818130C7
:1015C00021F48B81805C898302C081E08A838981D8
:1015D0008068898389810E94D6078A810F900F9045
:1015E0000F900F90CF91DF910895DF93CF93CDB7F8
:1015F000DEB728970FB6F894DEBF0FBECDBF8A8343
:101600006B834C8319828B81883008F0F4C08C8105
:10161000813009F072C08A81282F30E038872F830B
:101620008F8198858130910549F12F81388522304D
:1016300031052CF48F819885009761F05BC02F8174
:1016400038852230310571F18F819885833091057D
:10165000E9F150C0AAE3B0E0EAE3F0E08081482F6E
:101660008B81282F30E081E090E0022E02C0880FAD
:10167000991F0A94E2F7842B8C93BFC0A7E3B0E0D4
:10168000E7E3F0E08081482F8B81282F30E081E074
:1016900090E0022E02C0880F991F0A94E2F7842B73
:1016A0008C93ABC0A4E3B0E0E4E3F0E08081482F8A
:1016B0008B81282F30E081E090E0022E02C0880F5D
:1016C000991F0A94E2F7842B8C9397C0A1E3B0E0B2
:1016D000E1E3F0E08081482F8B81282F30E081E02A
:1016E00090E0022E02C0880F991F0A94E2F7842B23
:1016F0008C9383C081E0898380C08C81882309F02A
:1017000077C08A81282F30E03E832D838D819E8192
:101710008130910559F12D813E81223031052CF423
:101720008D819E81009769F060C02D813E812230BD
:10173000310589F18D819E818330910509F440C086
:1017400054C0AAE3B0E0EAE3F0E08081482F8B8147
:10175000282F30E081E090E0022E02C0880F991F10
:101760000A94E2F7809584238C9347C0A7E3B0E006
:10177000E7E3F0E08081482F8B81282F30E081E083
:1017800090E0022E02C0880F991F0A94E2F780951C
:1017900084238C9332C0A4E3B0E0E4E3F0E08081E2
:1017A000482F8B81282F30E081E090E0022E02C08C
:1017B000880F991F0A94E2F7809584238C931DC0AB
:1017C000A1E3B0E0E1E3F0E08081482F8B81282F96
:1017D00030E081E090E0022E02C0880F991F0A9449
:1017E000E2F7809584238C9308C081E0898305C04B
:1017F00081E0898302C081E08983898128960FB6C0
:10180000F894DEBF0FBECDBFCF91DF910895DF9377
:10181000CF93CDB7DEB728970FB6F894DEBF0FBED3
:10182000CDBF8A836B834C8319828B81883008F00B
:10183000F4C08C81813009F072C08A81282F30E099
:1018400038872F838F8198858130910549F12F81C9
:101850003885223031052CF48F819885009761F00E
:101860005BC02F8138852230310571F18F819885D9
:1018700083309105E9F150C0ABE3B0E0EBE3F0E079
:101880008081482F8B81282F30E081E090E0022E6C
:1018900002C0880F991F0A94E2F7842B8C93BFC073
:1018A000A8E3B0E0E8E3F0E08081482F8B81282FA7
:1018B00030E081E090E0022E02C0880F991F0A9468
:1018C000E2F7842B8C93ABC0A5E3B0E0E5E3F0E056
:1018D0008081482F8B81282F30E081E090E0022E1C
:1018E00002C0880F991F0A94E2F7842B8C9397C04B
:1018F000A2E3B0E0E2E3F0E08081482F8B81282F63
:1019000030E081E090E0022E02C0880F991F0A9417
:10191000E2F7842B8C9383C081E0898380C08C8123
:10192000882309F077C08A81282F30E03E832D83F9
:101930008D819E818130910559F12D813E8122302A
:1019400031052CF48D819E81009769F060C02D8156
:101950003E812230310589F18D819E818330910550
:1019600009F440C054C0ABE3B0E0EBE3F0E08081A9
:10197000482F8B81282F30E081E090E0022E02C0BA
:10198000880F991F0A94E2F7809584238C9347C0AF
:10199000A8E3B0E0E8E3F0E08081482F8B81282FB6
:1019A00030E081E090E0022E02C0880F991F0A9477
:1019B000E2F7809584238C9332C0A5E3B0E0E5E3A1
:1019C000F0E08081482F8B81282F30E081E090E08B
:1019D000022E02C0880F991F0A94E2F78095842393
:1019E0008C931DC0A2E3B0E0E2E3F0E08081482FD9
:1019F0008B81282F30E081E090E0022E02C0880F1A
:101A0000991F0A94E2F7809584238C9308C081E0A3
:101A1000898305C081E0898302C081E0898389814F
:101A200028960FB6F894DEBF0FBECDBFCF91DF91E1
:101A30000895DF93CF9300D000D00F92CDB7DEB7DB
:101A40008A836B8319828B81883008F072C08A8107
:101A5000282F30E03D832C838C819D81813091053E
:101A600049F12C813D81223031052CF48C819D81FE
:101A7000009761F05BC02C813D812230310571F10E
:101A80008C819D8183309105E9F150C0ABE3B0E0DA
:101A9000EBE3F0E08081482F8B81282F30E081E05C
:101AA00090E0022E02C0880F991F0A94E2F7842763
:101AB0008C9341C0A8E3B0E0E8E3F0E08081482FD8
:101AC0008B81282F30E081E090E0022E02C0880F49
:101AD000991F0A94E2F784278C932DC0A5E3B0E008
:101AE000E5E3F0E08081482F8B81282F30E081E012
:101AF00090E0022E02C0880F991F0A94E2F7842713
:101B00008C9319C0A2E3B0E0E2E3F0E08081482FBB
:101B10008B81282F30E081E090E0022E02C0880FF8
:101B2000991F0A94E2F784278C9305C081E089838A
:101B300002C081E0898389810F900F900F900F90F0
:101B40000F90CF91DF910895DF93CF93CDB7DEB79C
:101B500027970FB6F894DEBF0FBECDBF8A836B8385
:101B60005D834C8319828B81883008F074C08A8130
:101B7000282F30E03F832E834E815F814130510515
:101B800059F18E819F818230910534F42E813F81FD
:101B90002115310569F05CC04E815F8142305105ED
:101BA00079F18E819F818330910509F43DC050C049
:101BB000E9E3F0E08081282F30E08B81882F90E0EE
:101BC000A90102C0559547958A95E2F7CA0181702F
:101BD000EC81FD81808341C0E6E3F0E08081282F25
:101BE00030E08B81882F90E0A90102C05595479580
:101BF0008A95E2F7CA018170EC81FD8180832DC056
:101C0000E3E3F0E08081282F30E08B81882F90E0A3
:101C1000A90102C0559547958A95E2F7CA018170DE
:101C2000EC81FD81808319C0E0E3F0E08081282F02
:101C300030E08B81882F90E0A90102C0559547952F
:101C40008A95E2F7CA018170EC81FD81808305C02D
:101C500081E0898302C081E08983898127960FB65C
:101C6000F894DEBF0FBECDBFCF91DF910895DF9313
:101C7000CF9300D000D00F92CDB7DEB78A836B83AD
:101C800019828A81282F30E03D832C838C819D81AD
:101C900081309105D1F02C813D81223031052CF429
:101CA0008C819D81009761F01FC02C813D81223085
:101CB000310581F08C819D818330910581F014C0C4
:101CC000EAE3F0E08B81808311C0E7E3F0E08B81F1
:101CD00080830CC0E4E3F0E08B81808307C0E1E304
:101CE000F0E08B81808302C081E0898389810F903D
:101CF0000F900F900F900F90CF91DF910895DF9389
:101D0000CF9300D000D00F92CDB7DEB78A836B831C
:101D100019828A81282F30E03D832C838C819D811C
:101D200081309105D1F02C813D81223031052CF498
:101D30008C819D81009761F01FC02C813D812230F4
:101D4000310581F08C819D818330910581F014C033
:101D5000EBE3F0E08B81808311C0E8E3F0E08B815E
:101D600080830CC0E5E3F0E08B81808307C0E2E371
:101D7000F0E08B81808302C081E0898389810F90AC
:101D80000F900F900F900F90CF91DF910895DF93F8
:101D9000CF93CDB7DEB77894CF91DF910895DF93DD
:101DA000CF93CDB7DEB7F894CF91DF910895DF934D
:101DB000CF9300D000D0CDB7DEB79C838B83EB816F
:101DC000FC818081EB81FC8191819E012E5F3F4FE0
:101DD000692FA9010E94A40D8A81813011F4198212
:101DE00005C08A81882311F481E0898389810F905D
:101DF0000F900F900F90CF91DF910895DF93CF93C5
:101E000000D00F92CDB7DEB79B838A8319828A8177
:101E10009B810097A9F0EA81FB818081EA81FB81A7
:101E20009181692F40E00E94070CEA81FB8180814B
:101E3000EA81FB819281692F41E00E94070C02C078
:101E400082E0898389810F900F900F90CF91DF916D
:101E50000895DF93CF9300D00F92CDB7DEB79B8369
:101E60008A8319828A819B810097A9F0EA81FB818C
:101E70008081EA81FB819281692F40E00E94070CFA
:101E8000EA81FB818081EA81FB819181692F41E0B8
:101E90000E94070C02C082E0898389810F900F9015
:101EA0000F90CF91DF910895DF93CF9300D00F92E1
:101EB000CDB7DEB79B838A8319828A819B81009785
:101EC000A9F0EA81FB818081EA81FB819281692FFF
:101ED00041E00E94070CEA81FB818081EA81FB815D
:101EE0009181692F41E00E94070C02C082E0898342
:101EF00089810F900F900F90CF91DF910895DF931C
:101F0000CF93CDB7DEB7EAE3F0E08CEF8083E7E371
:101F1000F0E08FEF8083E4E3F0E08FEF8083E1E394
:101F2000F0E08EEB8083EBE3F0E083E08083E8E396
:101F3000F0E01082E5E3F0E01082E2E3F0E081E01F
:101F40008083CF91DF910895DF93CF93CDB7DEB734
:101F500027970FB6F894DEBF0FBECDBF9B838A8351
:101F600019828A819B81009709F4DEC080918001EB
:101F7000882309F0D6C081E080938001EA81FB814B
:101F80008181282F30E03F832E838E819F81813095
:101F9000910521F12E813F81223031052CF48E8173
:101FA0009F81009761F046C02E813F81223031052C
:101FB00021F18E819F818330910571F13BC0A3E5B2
:101FC000B0E0E3E5F0E080818F7B8C93A3E5B0E0A7
:101FD000E3E5F0E08081877F8C932CC0A3E5B0E03F
:101FE000E3E5F0E0808180648C93A3E5B0E0E3E575
:101FF000F0E08081877F8C931DC0A3E5B0E0E3E52E
:10200000F0E080818F7B8C93A3E5B0E0E3E5F0E026
:10201000808188608C930EC0A3E5B0E0E3E5F0E03A
:10202000808180648C93A3E5B0E0E3E5F0E08081FB
:1020300088608C93A3E5B0E0E3E5F0E080818F7CDD
:102040008C93EA81FB818181882329F0EA81FB81DD
:1020500081818230E1F4EA81FB8182818430A0F4C5
:10206000A3E5B0E0E3E5F0E08081282FEA81FB8181
:102070008281882F90E082959295907F9827807F2B
:102080009827822B8C933BC081E0898338C0EA81FA
:10209000FB818181833029F0EA81FB81818181305C
:1020A00071F5EA81FB818281282F30E03D832C830A
:1020B0008C819D818430910581F02C813D8125307A
:1020C000310599F08C819D810097B9F4E3E5F0E04A
:1020D000A3E5B0E08C91808312C0A3E5B0E0E3E516
:1020E000F0E0808180628C930AC0A3E5B0E0E3E574
:1020F000F0E0808180638C9302C081E08983A3E556
:10210000B0E0E3E5F0E08081887F8C93A3E5B0E068
:10211000E3E5F0E09081EA81FB818081892B8C935B
:1021200005C084E0898302C082E089838981279683
:102130000FB6F894DEBF0FBECDBFCF91DF910895EB
:10214000DF93CF93CDB7DEB729970FB6F894DEBFF4
:102150000FBECDBF9B838A8319828A819B810097A2
:1021600009F471C180918101882309F069C181E07E
:1021700080938101AFE4B0E0EFE4F0E080818C7FF8
:102180008C93AEE4B0E0EEE4F0E08081877E8C9347
:10219000AFE4B0E0EFE4F0E08081982FEA81FB81CA
:1021A00081818370892B8C93AEE4B0E0EEE4F0E0A3
:1021B0008081282FEA81FB81818186958695882FF1
:1021C00090E083709070880F991F880F991F880F77
:1021D000991F822B8C93EA81FB818181282F30E02B
:1021E00039872887888599858C309105B4F42885AE
:1021F0003985253031050CF070C08885998584308B
:102200009105C4F428853985213031050CF065C06D
:1022100088859985009771F0FFC0288539852C3015
:10222000310541F0888599850E978230910508F037
:10223000F3C053C0EA81FB8182818430F0F4AFE4C3
:10224000B0E0EFE4F0E080818F738C93AFE4B0E016
:10225000EFE4F0E08081282FEA81FB818281882FE2
:1022600090E0002496958795079496958795079416
:10227000982F802D822B8C9307C0EA81FB8182816D
:10228000863011F081E08983EA81FB81838184308B
:10229000D8F4AFE4B0E0EFE4F0E080818F7C8C9381
:1022A000AFE4B0E0EFE4F0E08081282FEA81FB8129
:1022B0008381882F90E082959295907F9827807FE8
:1022C0009827822B8C93AAC0EA81FB818381863078
:1022D00009F4A4C081E08983A1C0EA81FB818281E5
:1022E000282F30E03F832E838E819F81843091059B
:1022F00019F12E813F81253031052CF48E819F818B
:10230000009761F037C02E813F812530310519F1EA
:102310008E819F818630910579F12CC0AFE4B0E0C9
:10232000EFE4F0E080818F738C93AFE4B0E0EFE4F2
:10233000F0E080818C9320C0AFE4B0E0EFE4F0E007
:1023400080818F738C93AFE4B0E0EFE4F0E08081A4
:1023500080688C9311C0AFE4B0E0EFE4F0E08081DE
:102360008F738C93AFE4B0E0EFE4F0E08081806C99
:102370008C9302C081E08983EA81FB818381282FCD
:1023800030E03D832C838C819D818430910519F14F
:102390002C813D81253031052CF48C819D81009765
:1023A00061F037C02C813D812530310519F18C81D8
:1023B0009D818630910591F12CC0AFE4B0E0EFE44F
:1023C000F0E080818F7C8C93AFE4B0E0EFE4F0E04C
:1023D00080818C9323C0AFE4B0E0EFE4F0E0808133
:1023E0008F7C8C93AFE4B0E0EFE4F0E0808180621A
:1023F0008C9314C0AFE4B0E0EFE4F0E080818F7C18
:102400008C93AFE4B0E0EFE4F0E0808180638C93E4
:1024100005C081E0898302C081E08983AEE4B0E039
:10242000EEE4F0E08081887F8C93AEE4B0E0EEE4EF
:10243000F0E09081EA81FB818081892B8C9305C03B
:1024400084E0898302C082E08983898129960FB65E
:10245000F894DEBF0FBECDBFCF91DF910895DF931B
:10246000CF93CDB7DEB727970FB6F894DEBF0FBE78
:10247000CDBF9B838A8319828A819B81009709F44F
:10248000DEC080918201882309F0D6C081E080936C
:102490008201EA81FB818181282F30E03F832E83F6
:1024A0008E819F818130910521F12E813F812230E3
:1024B00031052CF48E819F81009761F046C02E81FA
:1024C0003F812230310521F18E819F81833091053A
:1024D00071F13BC0A5E4B0E0E5E4F0E080818F7BE2
:1024E0008C93A5E4B0E0E5E4F0E08081877F8C93F5
:1024F0002CC0A5E4B0E0E5E4F0E0808180648C933A
:10250000A5E4B0E0E5E4F0E08081877F8C931DC016
:10251000A5E4B0E0E5E4F0E080818F7B8C93A5E456
:10252000B0E0E5E4F0E0808188608C930EC0A5E423
:10253000B0E0E5E4F0E0808180648C93A5E4B0E055
:10254000E5E4F0E0808188608C93A5E4B0E0E5E408
:10255000F0E080818F7C8C93EA81FB8181818823EC
:1025600029F0EA81FB8181818230E1F4EA81FB81FB
:1025700082818430A0F4A5E4B0E0E5E4F0E080815D
:10258000282FEA81FB818281882F90E082959295A5
:10259000907F9827807F9827822B8C933BC081E087
:1025A000898338C0EA81FB818181833029F0EA8107
:1025B000FB818181813071F5EA81FB818281282F45
:1025C00030E03D832C838C819D818430910581F0A6
:1025D0002C813D812530310599F08C819D810097BA
:1025E000B9F4E5E4F0E0A5E4B0E08C91808312C09A
:1025F000A5E4B0E0E5E4F0E0808180628C930AC05D
:10260000A5E4B0E0E5E4F0E0808180638C9302C053
:1026100081E08983A5E4B0E0E5E4F0E08081887F93
:102620008C93A5E4B0E0E5E4F0E09081EA81FB81E1
:102630008081892B8C9305C084E0898302C082E06D
:102640008983898127960FB6F894DEBF0FBECDBF70
:10265000CF91DF910895DF93CF9300D000D000D0C9
:10266000CDB7DEB79B838A836C8319828A819B8175
:10267000009709F460C0A3E5B0E0E3E5F0E08081F5
:102680008F7C8C93EA81FB818181882329F0EA8108
:10269000FB8181818230C1F48C81843090F4A3E588
:1026A000B0E0E3E5F0E08081282F8C81882F90E076
:1026B00082959295907F9827807F9827822B8C9384
:1026C0003CC081E0898339C0EA81FB81818183300C
:1026D00029F0EA81FB818181813079F58C81282F75
:1026E00030E03E832D838D819E818430910581F081
:1026F0002D813E812530310599F08D819E81009795
:10270000B9F4E3E5F0E0A3E5B0E08C91808315C077
:10271000A3E5B0E0E3E5F0E0808180628C930DC03A
:10272000A3E5B0E0E3E5F0E0808180638C9305C031
:1027300081E0898302C082E08983898126960FB671
:10274000F894DEBF0FBECDBFCF91DF910895DF9328
:10275000CF93CDB7DEB728970FB6F894DEBF0FBE84
:10276000CDBF9B838A836C8319828A819B8100976A
:1027700009F4A5C0EA81FB818181282F30E03887E8
:102780002F838F8198858C309105ACF42F8138850B
:10279000253031050CF042C08F8198858430910539
:1027A000BCF42F81388521303105C4F58F8198859F
:1027B000009771F081C02F8138852C30310541F0B0
:1027C0008F8198850E978230910508F075C026C0DC
:1027D0008C818430E0F4AFE4B0E0EFE4F0E080819D
:1027E0008F738C93AFE4B0E0EFE4F0E08081282FAA
:1027F0008C81882F90E00024969587950794969574
:1028000087950794982F802D822B8C935AC08C81AA
:10281000863009F456C081E0898353C08C81282F0B
:1028200030E03E832D838D819E818430910519F1A6
:102830002D813E81253031052CF48D819E810097BC
:1028400061F037C02D813E812530310519F18D8130
:102850009E8186309105A9F12CC0AFE4B0E0EFE491
:10286000F0E080818F738C93AFE4B0E0EFE4F0E0B0
:1028700080818C9326C0AFE4B0E0EFE4F0E080818B
:102880008F738C93AFE4B0E0EFE4F0E08081806878
:102890008C9317C0AFE4B0E0EFE4F0E080818F7379
:1028A0008C93AFE4B0E0EFE4F0E08081806C8C9337
:1028B00008C081E0898305C081E0898302C082E08D
:1028C0008983898128960FB6F894DEBF0FBECDBFED
:1028D000CF91DF910895DF93CF93CDB7DEB72897DF
:1028E0000FB6F894DEBF0FBECDBF9B838A836C8387
:1028F00019828A819B81009709F4A2C0EA81FB8139
:102900008181282F30E038872F838F8198858C3004
:102910009105ACF42F813885253031050CF03FC08E
:102920008F81988584309105BCF42F8138852130C2
:102930003105ACF58F819885009771F07EC02F81AD
:1029400038852C30310541F08F8198850E97823083
:10295000910508F072C023C08C818430C8F4AFE4C4
:10296000B0E0EFE4F0E080818F7C8C93AFE4B0E0E6
:10297000EFE4F0E08081282F8C81882F90E0829511
:102980009295907F9827807F9827822B8C935AC0AE
:102990008C81863009F456C081E0898353C08C81D4
:1029A000282F30E03E832D838D819E8184309105D8
:1029B00019F12D813E81253031052CF48D819E81C8
:1029C000009761F037C02D813E812530310519F126
:1029D0008D819E8186309105A9F12CC0AFE4B0E0D5
:1029E000EFE4F0E080818F7C8C93AFE4B0E0EFE423
:1029F000F0E080818C9326C0AFE4B0E0EFE4F0E03B
:102A000080818F7C8C93AFE4B0E0EFE4F0E08081D4
:102A100080628C9317C0AFE4B0E0EFE4F0E0808117
:102A20008F7C8C93AFE4B0E0EFE4F0E080818063D2
:102A30008C9308C081E0898305C081E0898302C04E
:102A400082E08983898128960FB6F894DEBF0FBE95
:102A5000CDBFCF91DF910895DF93CF93CDB7DEB790
:102A600028970FB6F894DEBF0FBECDBF9B838A8335
:102A70006C8319828A819B81009709F4CDC0EA8119
:102A8000FB818181282F30E038872F838F819885C3
:102A90008130910521F12F813885223031052CF4C8
:102AA0008F819885009761F046C02F81388522304C
:102AB000310521F18F8198858330910571F13BC0FB
:102AC000A5E4B0E0E5E4F0E080818F7B8C93A5E4A1
:102AD000B0E0E5E4F0E08081877F8C932CC0A5E432
:102AE000B0E0E5E4F0E0808180648C93A5E4B0E0A0
:102AF000E5E4F0E08081877F8C931DC0A5E4B0E021
:102B0000E5E4F0E080818F7B8C93A5E4B0E0E5E420
:102B1000F0E0808188608C930EC0A5E4B0E0E5E42D
:102B2000F0E0808180648C93A5E4B0E0E5E4F0E01F
:102B3000808188608C93A5E4B0E0E5E4F0E08081DA
:102B40008F7C8C93EA81FB818181882329F0EA8143
:102B5000FB8181818230C1F48C81843090F4A5E4C2
:102B6000B0E0E5E4F0E08081282F8C81882F90E0B0
:102B700082959295907F9827807F9827822B8C93BF
:102B800039C081E0898336C0EA81FB81818183304D
:102B900029F0EA81FB818181813061F58C81282FC8
:102BA00030E03E832D838D819E818430910581F0BC
:102BB0002D813E812530310599F08D819E810097D0
:102BC000B9F4E5E4F0E0A5E4B0E08C91808312C0B4
:102BD000A5E4B0E0E5E4F0E0808180628C930AC077
:102BE000A5E4B0E0E5E4F0E0808180638C9302C06E
:102BF00081E08983A5E4B0E0E5E4F0E08081887FAE
:102C00008C93A5E4B0E0E5E4F0E09081EA81FB81FB
:102C10008081892B8C9302C082E0898389812896E8
:102C20000FB6F894DEBF0FBECDBFCF91DF910895F0
:102C3000DF93CF9300D000D0CDB7DEB78A8319825F
:102C40008A81282F30E03C832B838B819C818330C9
:102C5000910509F442C02B813C81243031057CF47C
:102C60008B819C818130910541F12B813C81223007
:102C700031055CF58B819C810097B9F056C02B81A2
:102C80003C8125303105C9F18B819C8185309105CE
:102C900064F12B813C812630310509F43EC08B81E3
:102CA0009C818730910589F140C0A9E5B0E0E9E554
:102CB000F0E0808181608C933AC0A9E5B0E0E9E55D
:102CC000F0E0808182608C9332C0A9E5B0E0E9E554
:102CD000F0E0808184608C932AC0A9E5B0E0E9E54A
:102CE000F0E0808180618C9322C0A9E5B0E0E9E545
:102CF000F0E0808188608C931AC0A9E5B0E0E9E536
:102D0000F0E0808180628C9312C0A9E5B0E0E9E533
:102D1000F0E0808180688C930AC0A9E5B0E0E9E525
:102D2000F0E0808180648C9302C081E08983898196
:102D30000F900F900F900F90CF91DF910895DF9338
:102D4000CF9300D000D0CDB7DEB78A8319828A81B5
:102D5000282F30E03C832B838B819C81833091052D
:102D600009F442C02B813C81243031057CF48B81F5
:102D70009C818130910541F12B813C8122303105CC
:102D80005CF58B819C810097B9F056C02B813C810A
:102D900025303105C9F18B819C818530910564F125
:102DA0002B813C812630310509F43EC08B819C810A
:102DB0008730910589F140C0A9E5B0E0E9E5F0E090
:102DC00080818E7F8C933AC0A9E5B0E0E9E5F0E020
:102DD00080818D7F8C9332C0A9E5B0E0E9E5F0E019
:102DE00080818B7F8C932AC0A9E5B0E0E9E5F0E013
:102DF00080818F7E8C9322C0A9E5B0E0E9E5F0E008
:102E00008081877F8C931AC0A9E5B0E0E9E5F0E006
:102E100080818F7D8C9312C0A9E5B0E0E9E5F0E0F8
:102E200080818F778C930AC0A9E5B0E0E9E5F0E0F6
:102E300080818F7B8C9302C081E0898389810F9090
:102E40000F900F900F90CF91DF910895DF93CF9364
:102E500000D000D0CDB7DEB78A8319828A81282FAF
:102E600030E03C832B838B819C818130910599F0EC
:102E70002B813C8122303105C1F08B819C810097F0
:102E8000F1F410928001A3E5B0E0E3E5F0E0808189
:102E9000887F8C9316C010928101AEE4B0E0EEE41E
:102EA000F0E08081887F8C930CC010928201A5E4B1
:102EB000B0E0E5E4F0E08081887F8C9302C081E09F
:102EC000898389810F900F900F900F90CF91DF91A0
:102ED0000895DF93CF9300D000D0CDB7DEB78A83BB
:102EE0007C836B8319828B819C81009769F08A8136
:102EF000882F90E0880F991FFC01ED57FE4F8B81C2
:102F00009C819183808302C082E0898389810F90B4
:102F10000F900F900F90CF91DF910895DF93CF9393
:102F20000F92CDB7DEB78983ECE5F0E0898180832D
:102F30000F90CF91DF910895DF93CF930F92CDB78C
:102F4000DEB78983E2E5F0E0898180830F90CF913D
:102F5000DF910895DF93CF93CDB7DEB7E2E5F0E0E0
:102F60008081CF91DF910895DF93CF930F92CDB7FA
:102F7000DEB78983E3E4F0E0898180830F90CF910D
:102F8000DF910895DF93CF930F92CDB7DEB789839A
:102F9000E4E4F0E0898180830F90CF91DF91089580
:102FA000DF93CF93CDB7DEB7E4E4F0E08081CF913B
:102FB000DF910895DF93CF9300D0CDB7DEB79A832A
:102FC0008983EAE4F0E089819A81918380830F907C
:102FD0000F90CF91DF910895DF93CF9300D0CDB7BD
:102FE000DEB79A838983E8E4F0E089819A8191834E
:102FF00080830F900F90CF91DF910895DF93CF934F
:1030000000D0CDB7DEB79A838983ECE4F0E0898104
:103010009A81918380830F900F90CF91DF910895D3
:10302000DF93CF9300D0CDB7DEB79A838983E6E4F0
:10303000F0E089819A81918380830F900F90CF91E6
:10304000DF910895DF93CF93CDB7DEB7ECE4F0E0E6
:1030500080819181CF91DF910895DF93CF93CDB798
:10306000DEB7E6E4F0E080819181CF91DF910895B1
:10307000DF93CF9300D000D0CDB7DEB78A8319821B
:103080008A81282F30E03C832B838B819C810097A1
:1030900031F02B813C812130310549F010C0AEE484
:1030A000B0E0EEE4F0E0808180648C930AC0AEE48E
:1030B000B0E0EEE4F0E080818F7B8C9302C081E091
:1030C000898389810F900F900F900F90CF91DF919E
:1030D0000895DF93CF93CDB7DEB7A1E4B0E0E1E48C
:1030E000F0E0808188608C93CF91DF910895DF9329
:1030F000CF93CDB7DEB7A1E4B0E0E1E4F0E08081AA
:1031000088618C93A1E4B0E0E1E4F0E08081877F06
:103110008C93CF91DF910895DF93CF9300D0CDB7FB
:10312000DEB78A8319828A81883080F4A1E4B0E016
:10313000E1E4F0E08081887F8C93A1E4B0E0E1E4F9
:10314000F0E090818A81892B8C9302C081E0898391
:1031500089810F900F90CF91DF9108951F920F9268
:103160000FB60F9211242F933F934F935F936F935A
:103170007F938F939F93AF93BF93EF93FF93DF93CF
:10318000CF93CDB7DEB780918301909184010097F2
:1031900029F0E0918301F09184010995CF91DF91AD
:1031A000FF91EF91BF91AF919F918F917F916F911F
:1031B0005F914F913F912F910F900FBE0F901F90F5
:1031C00018951F920F920FB60F9211242F933F93D1
:1031D0004F935F936F937F938F939F93AF93BF931F
:1031E000EF93FF93DF93CF93CDB7DEB78091850147
:1031F00090918601009729F0E0918501F091860178
:103200000995CF91DF91FF91EF91BF91AF919F9180
:103210008F917F916F915F914F913F912F910F907F
:103220000FBE0F901F9018951F920F920FB60F921E
:1032300011242F933F934F935F936F937F938F93BB
:103240009F93AF93BF93EF93FF93DF93CF93CDB74C
:10325000DEB78091870190918801009729F0E09175
:103260008701F09188010995CF91DF91FF91EF914E
:10327000BF91AF919F918F917F916F915F914F918E
:103280003F912F910F900FBE0F901F9018951F9296
:103290000F920FB60F9211242F933F934F935F938A
:1032A0006F937F938F939F93AF93BF93EF93FF930E
:1032B000DF93CF93CDB7DEB780918B0190918C01D6
:1032C000009729F0E0918B01F0918C010995CF9145
:1032D000DF91FF91EF91BF91AF919F918F917F917E
:1032E0006F915F914F913F912F910F900FBE0F9073
:1032F0001F9018951F920F920FB60F9211242F93C3
:103300003F934F935F936F937F938F939F93AF936D
:10331000BF93EF93FF93DF93CF93CDB7DEB7809149
:10332000890190918A01009729F0E0918901F0913B
:103330008A010995CF91DF91FF91EF91BF91AF91F4
:103340009F918F917F916F915F914F913F912F91BD
:103350000F900FBE0F901F9018951F920F920FB6EF
:103360000F9211242F933F934F935F936F937F930B
:103370008F939F93AF93BF93EF93FF93DF93CF937D
:10338000CDB7DEB780918D0190918E01009729F025
:10339000E0918D01F0918E010995CF91DF91FF9120
:1033A000EF91BF91AF919F918F917F916F915F91BD
:1033B0004F913F912F910F900FBE0F901F90189536
:1033C0001F920F920FB60F9211242F933F934F939A
:1033D0005F936F937F938F939F93AF93BF93EF937D
:1033E000FF93DF93CF93CDB7DEB780918F0190919C
:1033F0009001009729F0E0918F01F09190010995DB
:10340000CF91DF91FF91EF91BF91AF919F918F91FC
:103410007F916F915F914F913F912F910F900FBED0
:103420000F901F9018951F920F920FB60F921124B4
:103430002F933F934F935F936F937F938F939F93BC
:10344000AF93BF93EF93FF93DF93CF93CDB7DEB7E7
:103450008091910190919201009729F0E091910162
:10346000F09192010995CF91DF91FF91EF91BF917A
:10347000AF919F918F917F916F915F914F913F910C
:103480002F910F900FBE0F901F901895DF93CF9341
:1034900000D0CDB7DEB78A8319828A81882394F160
:1034A0008A818695869586958F3019F48A8188233E
:1034B00031F1E2E2F0E08A81880F8083A6E5B0E096
:1034C000E6E5F0E0808180648C93A1E2B0E0E1E287
:1034D000F0E080818E7F8C93A1E2B0E0E1E2F0E049
:1034E00080818D7F8C93E0E2F0E082E08083A6E52E
:1034F000B0E0E6E5F0E0808184608C9305C082E076
:10350000898302C081E0898389810F900F90CF91D8
:10351000DF910895DF93CF9300D0CDB7DEB78A83D4
:1035200019828A81882304F58A81869586958695F5
:103530008F3019F48A818823A1F0E2E2F0E08A81D9
:10354000880F8083A6E5B0E0E6E5F0E08081806446
:103550008C93A6E5B0E0E6E5F0E0808184608C9392
:1035600005C082E0898302C081E0898389810F9050
:103570000F90CF91DF910895DF93CF930F92CDB746
:10358000DEB71982A6E5B0E0E6E5F0E08081806272
:103590008C93A6E5B0E0E6E5F0E0808180688C934E
:1035A000E6E5F0E080818823DCF7E1E2F0E080816D
:1035B000882F90E0887F90708830910511F083E02B
:1035C000898389810F90CF91DF910895DF93CF9305
:1035D0000F92CDB7DEB71982A6E5B0E0E6E5F0E0E0
:1035E000808180628C93A6E5B0E0E6E5F0E0808122
:1035F00080688C93E6E5F0E080818823DCF7E1E2E7
:10360000F0E08081882F90E0887F90708031910574
:1036100011F084E0898389810F90CF91DF91089523
:10362000DF93CF9300D0CDB7DEB78A831982E3E270
:10363000F0E08A81880F8083A3E2B0E0E3E2F0E06B
:1036400080818E7F8C93A6E5B0E0E6E5F0E0808196
:103650008F7D8C93A6E5B0E0E6E5F0E080818068A0
:103660008C93E6E5F0E080818823DCF7E1E2F0E08E
:103670008081882F90E0887F90708831910511F0CB
:1036800085E0898389810F900F90CF91DF91089514
:10369000DF93CF9300D0CDB7DEB78A831982E3E200
:1036A000F0E08A81880F8083A3E2B0E0E3E2F0E0FB
:1036B000808181608C93A6E5B0E0E6E5F0E0808152
:1036C0008F7D8C93A6E5B0E0E6E5F0E08081806830
:1036D0008C93E6E5F0E080818823DCF7E1E2F0E01E
:1036E0008081882F90E0887F90708034910511F060
:1036F00086E0898389810F900F90CF91DF910895A3
:10370000DF93CF9300D0CDB7DEB78A831982E3E28F
:10371000F0E08A818083A6E5B0E0E6E5F0E0808114
:1037200080688C93E6E5F0E080818823DCF7E1E2B5
:10373000F0E08081882F90E0887F9070883291053A
:1037400011F087E0898389810F900F90CF91DF91ED
:103750000895DF93CF9300D00F92CDB7DEB79B8350
:103760008A8319828A819B81009701F1A6E5B0E0E6
:10377000E6E5F0E0808180688C93E6E5F0E080810A
:103780008823DCF7E1E2F0E08081882F90E0887FF9
:1037900090708035910519F088E0898309C0E3E2D3
:1037A000F0E08081EA81FB81808302C089E0898327
:1037B00089810F900F900F90CF91DF910895DF9343
:1037C000CF93CDB7DEB7A6E5B0E0E6E5F0E08081C7
:1037D00080618C93A6E5B0E0E6E5F0E0808180684A
:1037E0008C93CF91DF910895DF93CF930F92CDB754
:1037F000DEB71982AAE2B0E0EAE2F0E080818061FF
:103800008C93AAE2B0E0EAE2F0E0808188608C93D9
:10381000ABE2B0E0EBE2F0E080818D7F8C938981B8
:10382000897F898389818260898389818460898392
:10383000AAE2B0E0EAE2F0E080818B7F8C9389819C
:103840008F7B898389818F7E898389818F7D89831D
:103850008981877F8983898180688983E0E4F0E0BA
:1038600089818083E9E2F0E083E380830F90CF9148
:10387000DF910895DF93CF93CDB7DEB727970FB6CB
:10388000F894DEBF0FBECDBF9F838E831D82198249
:103890001A821B821C8280919F01882321F08091D3
:1038A000A1018130E9F581E080939F010BC08981FE
:1038B0009A81AB81BC810196A11DB11D89839A8338
:1038C000AB83BC83EBE2F0E08081829586958770C4
:1038D000882F90E081709070009761F489819A81BF
:1038E000AB81BC81803A26E8920721E0A20720E064
:1038F000B207E8F289819A81AB81BC81803A26E8DF
:10390000920721E0A20720E0B20719F483E08D833B
:1039100004C0ECE2F0E08E81808310929F0102C02F
:1039200084E08D838D8127960FB6F894DEBF0FBE9D
:10393000CDBFCF91DF910895DF93CF93CDB7DEB7A1
:1039400027970FB6F894DEBF0FBECDBF9F838E833F
:103950001D8219821A821B821C828E819F81009790
:1039600009F443C08091A001882321F08091A10136
:103970008130C1F581E08093A0010BC089819A81DB
:10398000AB81BC810196A11DB11D89839A83AB8354
:10399000BC83EBE2F0E08081882364F089819A8126
:1039A000AB81BC81803A26E8920721E0A20720E0A3
:1039B000B20720F389819A81AB81BC81803A26E8E5
:1039C000920721E0A20720E0B20719F483E08D837B
:1039D00006C0EE81FF81ACE2B0E08C918083109252
:1039E000A00105C084E08D8302C082E08D838D81BB
:1039F00027960FB6F894DEBF0FBECDBFCF91DF91F3
:103A00000895DF93CF9300D000D000D0CDB7DEB7BC
:103A10009D838C836E831B821A8219828C819D8187
:103A2000009779F180919F01882341F581E080938F
:103A30009F0181E08093A101198217C02C813D81F3
:103A40008981882F90E0F901E80FF91F8081882F84
:103A500090E00E943A1C8A838A81882319F081E0D1
:103A60008B8307C089818F5F898399818E819817A5
:103A700028F31092A10110929F0105C084E08B836E
:103A800002C082E08B838B8126960FB6F894DEBF4E
:103A90000FBECDBFCF91DF910895DF93CF9300D0BC
:103AA00000D000D0CDB7DEB79D838C836E831B82A0
:103AB0001A8219828C819D81009771F18091A001F9
:103AC000882339F581E08093A00181E08093A201F1
:103AD000198216C08981882F90E09C01220F331F24
:103AE0008C819D81820F931F0E949C1C8A838A81F6
:103AF000882319F081E08B8307C089818F5F8983D8
:103B000099818E81981730F31092A2011092A00132
:103B100005C084E08B8302C082E08B838B81269674
:103B20000FB6F894DEBF0FBECDBFCF91DF910895E1
:103B3000DF93CF9300D000D000D0CDB7DEB79B830A
:103B40008A836C835E834D8319828A819B8100976F
:103B500039F18D819E81009719F180919F01882311
:103B6000E1F481E080939F018A819B81909397018A
:103B7000809396018C81809395018D819E81909395
:103B800094018093930110929801AAE2B0E0EAE2D6
:103B9000F0E0808180628C9305C084E0898302C05C
:103BA00082E08983898126960FB6F894DEBF0FBE26
:103BB000CDBFCF91DF910895DF93CF9300D000D098
:103BC00000D0CDB7DEB79B838A836C835E834D8341
:103BD00019828A819B81009739F18D819E8100979E
:103BE00019F18091A0018823E1F481E08093A00184
:103BF0008A819B8190939D0180939C018C8180930D
:103C00009B018D819E8190939A01809399011092DE
:103C10009E01AAE2B0E0EAE2F0E0808180688C9345
:103C200005C084E0898302C082E089838981269669
:103C30000FB6F894DEBF0FBECDBFCF91DF910895D0
:103C40001F920F920FB60F9211242F933F934F9311
:103C50005F936F937F938F939F93AF93BF93EF93F4
:103C6000FF93DF93CF93CDB7DEB780919C01909106
:103C70009D019C0180919E01882F90E0D901A80FA1
:103C8000B91FECE2F0E080818C9380919E018F5F00
:103C900080939E0190919E0180919B019817A1F4C1
:103CA000AAE2B0E0EAE2F0E080818F778C93109294
:103CB000A0018091990190919A01009729F0E091DB
:103CC0009901F0919A010995CF91DF91FF91EF91C0
:103CD000BF91AF919F918F917F916F915F914F9124
:103CE0003F912F910F900FBE0F901F9018951F922C
:103CF0000F920FB60F9211242F933F934F935F9320
:103D00006F937F938F939F93AF93BF93EF93FF93A3
:103D1000DF93CF93CDB7DEB7ACE2B0E080919601F0
:103D2000909197019C0180919801882F90E0F90172
:103D3000E80FF91F80818C93809198018F5F8093A9
:103D4000980190919801809195019817A1F4AAE2A9
:103D5000B0E0EAE2F0E080818F7D8C9310929F01C9
:103D60008091930190919401009729F0E091930143
:103D7000F09194010995CF91DF91FF91EF91BF915F
:103D8000AF919F918F917F916F915F914F913F91F3
:103D90002F910F900FBE0F901F9018951F920F92AA
:103DA0000FB60F921124DF93CF93CDB7DEB7CF912B
:103DB000DF910F900FBE0F901F901895DF93CF9358
:103DC000CDB7DEB7AA970FB6F894DEBF0FBECDBF52
:103DD00098A78FA37AA769A71AA219A21D8E1E8E73
:103DE0001F8E18A2198E1A8E1B8E1C8E82E08BA33A
:103DF0001CA21DA21EA2CE0183960E94A01089A320
:103E000089A1882309F0BBC12CEF30E282E0B9011F
:103E10000E94691780E00E9438182BEC30E285E0A0
:103E2000B9010E94691785E00E941816EFA1F8A554
:103E30008081EFA1F8A59181692F41E00E94070CD4
:103E400080E090E0A8ECB2E48D8B9E8BAF8BB88FB6
:103E50006D897E898F89988D2BEA3AEA4AE250E48F
:103E60000E941F02DC01CB01898B9A8BAB8BBC8B30
:103E700069897A898B899C8920E030E040E85FE39A
:103E80000E94250488231CF481E0888B91C06989F5
:103E90007A898B899C8920E030E04FE753E40E94C7
:103EA000C50318160CF07BC06D897E898F89988DAB
:103EB00020E030E04AE754E40E941903DC01CB0122
:103EC0008C879D87AE87BF876C857D858E859F8516
:103ED00020E030E04AEF54E40E941F02DC01CB01F5
:103EE00088879987AA87BB87688579858A859B8516
:103EF00020E030E040E85FE30E94250488232CF4B2
:103F000081E090E09F838E833FC0688579858A85B4
:103F10009B8520E03FEF4FE757E40E94C50318164A
:103F20004CF56C857D858E859F8520E030E040E2F4
:103F300051E40E941F02DC01CB01BC01CD010E94B3
:103F40004900DC01CB019F838E830FC088EC90E099
:103F50009D838C838C819D810197F1F79D838C8358
:103F60008E819F8101979F838E838E819F81009791
:103F700069F724C0688579858A859B850E944900F8
:103F8000DC01CB019F838E838E819F819B838A83FB
:103F90008A819B810197F1F79B838A830FC069898E
:103FA0007A898B899C890E944900DC01CB01888B2E
:103FB0008889898389818A95F1F78983EFA1F8A59A
:103FC0008081EFA1F8A59181692F40E00E94070C44
:103FD0000BC0898D9A8DAB8DBC8D0196A11DB11D35
:103FE000898F9A8FAB8FBC8F8091A3019091A40190
:103FF000009731F08091A5019091A601009761F49E
:10400000898D9A8DAB8DBC8D803523EC920720E095
:10401000A20720E0B207E8F282E00E949F1685E046
:104020000E949F1681E00E9426178091A90190911D
:10403000AA010097A1F42091A5013091A6018091D9
:10404000A3019091A401A901481B590BCA01CC01FD
:10405000A0E0B0E08D8F9E8FAF8FB8A359C02091A4
:10406000A5013091A6018091A3019091A401281788
:10407000390710F12091A5013091A6018091A3018B
:104080009091A401A901481B590BCA019C0140E071
:1040900050E08091A9019091AA01CC01A0E0B0E08C
:1040A000DC0199278827820F931FA41FB51F8D8FCE
:1040B0009E8FAF8FB8A32CC02091A5013091A6018F
:1040C0008091A3019091A4012817390708F5209148
:1040D000A3013091A4018091A5019091A601A901AD
:1040E000481B590BCA019C0140E050E08091A90196
:1040F0009091AA01CC01A0E0B0E0DC0199278827CB
:10410000820F931FA41FB51F8D8F9E8FAF8FB8A3F3
:104110006D8D7E8D8F8D98A10E94A904DC01CB014D
:10412000BC01CD0120E030E040E050E40E941903E2
:10413000DC01CB01BC01CD0126E933E44BE05DE3BA
:104140000E941F02DC01CB01BC01CD010E9449008D
:10415000DC01CB01E9A5FAA5918380831092A4012B
:104160001092A3011092A6011092A5011092A8012D
:104170001092A7011092AA011092A90102C081E039
:104180008AA38AA1AA960FB6F894DEBF0FBECDBF50
:10419000CF91DF910895DF93CF93CDB7DEB78091B4
:1041A000AB018F5F8093AB018091AB01813069F4EB
:1041B00082E00E9418160E942D189093A40180930B
:1041C000A30181E00E94381814C08091AB018230B5
:1041D00081F40E942D189093A6018093A5018091EF
:1041E000A7019091A8019093AA018093A901109230
:1041F000AB01CF91DF910895DF93CF93CDB7DEB7B9
:104200008091A7019091A80101969093A8018093B5
:10421000A701CF91DF910895DF93CF9300D000D015
:104220000F92CDB7DEB70E947F0F0E94F41B0E9451
:10423000C70E82E089831B8282E08A83CE010196C9
:104240000E94A40F8AEF0E948E1725E332E281E0DC
:10425000B9010E94691781E00E949F161092B30174
:1042600081E08093B40182E08093B20182E0809388
:10427000B00183E08093B10182E08093AF018CEACA
:1042800091E025E831E261E0A9010E94DC1D809106
:10429000AC01282F30E03D832C838C819D818634B6
:1042A0009105B1F02C813D812734310534F48C81A6
:1042B0009D818234910591F0E2CF2C813D812C3497
:1042C0003105E9F08C819D818235910591F0D7CF40
:1042D00086E462E370E00E948C21D1CF80E067E049
:1042E00041E00E94070C82E462E370E00E948C21AE
:1042F000C6CF82E562E370E00E948C21C0CF8CE4DF
:1043000062E370E00E948C21BACFDF93CF93CDB7E8
:10431000DEB7CF91DF910895DF93CF93CDB7DEB7AE
:1043200061970FB6F894DEBF0FBECDBF8F87798B34
:10433000688B8F858093AE0181E00E941816888972
:104340009989CC01A0E0B0E0BC01CD010E94A90494
:10435000DC01CB018B879C87AD87BE876B857C8515
:104360008D859E8520E030E04AEF54E40E941F02D4
:10437000DC01CB018F839887A987BA876F81788505
:1043800089859A8520E030E040E85FE30E942504BB
:1043900088232CF481E090E09E838D833FC06F8161
:1043A000788589859A8520E03FEF4FE757E40E94A2
:1043B000C50318164CF56B857C858D859E8520E0A0
:1043C00030E040E251E40E941F02DC01CB01BC015D
:1043D000CD010E944900DC01CB019E838D830FC07B
:1043E00088EC90E09C838B838B819C810197F1F713
:1043F0009C838B838D819E8101979E838D838D818C
:104400009E81009769F714C06F81788589859A85A8
:104410000E944900DC01CB019E838D838D819E81AA
:104420009A83898389819A810197F1F79A83898395
:104430000E94232261960FB6F894DEBF0FBECDBF57
:10444000CF91DF910895DF93CF93CDB7DEB781E0B1
:104450000E949F1682EB91E00E94540F8FEA91E038
:104460000E94540FCF91DF910895DF93CF93CDB782
:10447000DEB78091AD018F5F8093AD019091AD016A
:1044800080916E019817A1F58091AE01863449F4B0
:1044900082EB91E00E94290F8FEA91E00E94290FA0
:1044A00035C08091AE01823449F482EB91E00E94E4
:1044B000FE0E8FEA91E00E94FE0E28C08091AE01B0
:1044C000823549F48FEA91E00E94FE0E82EB91E082
:1044D0000E94290F1BC08091AE018C34B9F48FEA81
:1044E00091E00E94290F82EB91E00E94FE0E0EC027
:1044F0008091AD01843151F482EB91E00E94540F20
:104500008FEA91E00E94540F1092AD01CF91DF919C
:10451000089597FB092E05260ED057FD04D014D020
:104520000AD0001C38F450954095309521953F4FA6
:104530004F4F5F4F0895F6F7909580957095619570
:104540007F4F8F4F9F4F0895A1E21A2EAA1BBB1BCE
:10455000FD010DC0AA1FBB1FEE1FFF1FA217B3074F
:10456000E407F50720F0A21BB30BE40BF50B661F65
:10457000771F881F991F1A9469F760957095809529
:1045800090959B01AC01BD01CF0108952F923F9200
:104590004F925F926F927F928F929F92AF92BF9253
:1045A000CF92DF92EF92FF920F931F93CF93DF93FF
:1045B000CDB7DEB7CA1BDB0B0FB6F894DEBF0FBE5C
:1045C000CDBF09942A88398848885F846E847D84A9
:1045D0008C849B84AA84B984C884DF80EE80FD80AB
:1045E0000C811B81AA81B981CE0FD11D0FB6F89421
:0E45F000DEBF0FBECDBFED010895F894FFCFE2
:1045FE003062003078000000000000000000000172
:10460E000202030303030404040404040404050562
:10461E00050505050505050505050505050506063A
:10462E00060606060606060606060606060606061C
:10463E00060606060606060606060606060607070A
:10464E0007070707070707070707070707070707EC
:10465E0007070707070707070707070707070707DC
:10466E0007070707070707070707070707070707CC
:10467E0007070707070707070707070707070808BA
:10468E00080808080808080808080808080808089C
:10469E00080808080808080808080808080808088C
:1046AE00080808080808080808080808080808087C
:1046BE00080808080808080808080808080808086C
:1046CE00080808080808080808080808080808085C
:1046DE00080808080808080808080808080808084C
:1046EE00080808080808080808080808080808083C
:1046FE00080808080808080808080808080801300B
:10470E003132333435363738394142434445460029
:00000001FF
