:100000000C942A000C9447000C9447000C94470071
:100010000C94AD170C947A170C9447170C94141782
:100020000C94E1160C94AE160C947B160C944816A6
:100030000C9447000C940C1A0C94631A0C94BA1A82
:100040000C9447000C9447000C9447000C94470014
:100050000C94470011241FBECFE5D8E0DEBFCDBF12
:1000600011E0A0E6B0E0E2E6FAE302C005900D92EE
:10007000AA36B107D9F711E0AAE6B1E001C01D9296
:10008000AF39B107E1F70E94C60B0C942F1D0C94F9
:100090000000EF92FF920F931F937B018C0120E0F1
:1000A00030E040E05FE40E94F50388238CF0C80153
:1000B000B70120E030E040E05FE40E94C1010E940F
:1000C00055049B01AC01205030404040504806C0D0
:1000D000C801B7010E9455049B01AC01B901CA01D6
:1000E0001F910F91FF90EF900895A0E0B0E0EBE733
:1000F000F0E00C94F81CDC012B01FA019C91923089
:1001000008F439C1EB018881823008F433C194309E
:1001100069F4843009F02FC111969C91119789815F
:10012000981709F428C1A0E6B0E025C1843009F48D
:1001300021C18230A9F4923009F01DC19A01AD01AC
:1001400088E0EA010990AE01E90109929E0181501F
:10015000C1F7E201898111969C918923818308C1AD
:10016000923009F407C112962D903C901397EB0141
:100170008A819B811496AD90BD90CD90DC901797AD
:10018000EC80FD800E811F819101281B390BB90184
:1001900037FF04C066277727621B730B6032710537
:1001A0000CF061C0121613066CF537014801062EDB
:1001B00004C096948794779467940A94D2F721E0C8
:1001C00030E040E050E004C0220F331F441F551FB1
:1001D0006A95D2F721503040404050402E213F21B7
:1001E00040235123211531054105510521F021E01E
:1001F00030E040E050E079018A01E628F72808293C
:1002000019293CC0232BD1F1260E371E350146019A
:10021000062E04C096948794779467940A94D2F734
:1002200021E030E040E050E004C0220F331F441FC3
:10023000551F6A95D2F721503040404050402A2146
:100240003B214C215D21211531054105510521F04E
:1002500021E030E040E050E059016A01A628B728CB
:10026000C828D9280BC0821593052CF01C01AA249C
:10027000BB24650103C0EE24FF24870111969C91E5
:10028000D20111968C91981709F445C0992339F041
:10029000A80197012A193B094C095D0906C0A6016E
:1002A00095012E193F09400B510B57FD08C01182D3
:1002B0003382228224833583468357831DC081E0A5
:1002C00081833382228288279927DC01821B930B4A
:1002D000A40BB50B84839583A683B7830DC0220F2F
:1002E000331F441F551F24833583468357838281E0
:1002F000938101979383828324813581468157813D
:10030000DA01C9010197A109B1098F5F9F4FAF4F72
:10031000BF4328F30BC0918333822282EA0CFB1C7B
:100320000C1D1D1DE482F5820683178383E0808304
:10033000248135814681578157FF1AC0C901AA27F8
:1003400097FDA095BA2F81709070A070B0705695EF
:10035000479537952795822B932BA42BB52B848318
:100360009583A683B7838281938101969383828349
:10037000DF0101C0D201CD01CDB7DEB7E2E10C94BF
:10038000141DA0E2B0E0E7ECF1E00C94041D6983D9
:100390007A838B839C832D833E834F835887E9E048
:1003A000EE2EF12CEC0EFD1ECE010196B7010E943F
:1003B00046068E010F5E1F4FCE010596B8010E94C2
:1003C00046068A8991E089278A8BC701B801AE0168
:1003D000475E5F4F0E9475000E947105A096E6E09F
:1003E0000C94201DA0E2B0E0E8EFF1E00C94041DB5
:1003F00069837A838B839C832D833E834F835887C5
:10040000F9E0EF2EF12CEC0EFD1ECE010196B701A6
:100410000E9446068E010F5E1F4FCE010596B80161
:100420000E944606C701B801AE01475E5F4F0E94B9
:1004300075000E947105A096E6E00C94201DA0E2D4
:10044000B0E0E5E2F2E00C94F81C69837A838B83D8
:100450009C832D833E834F835887CE010196BE0136
:10046000675F7F4F0E944606CE010596BE016F5E14
:100470007F4F0E9446069985923088F089898230A4
:10048000C8F0943019F4823051F404C0843029F457
:10049000923081F480E690E0C6C0923049F420E0CA
:1004A0009A858A89981321E02A87CE010996BBC0D4
:1004B000823049F420E09A858A89981321E02A8BBA
:1004C000CE014196B0C02D843E844F8458886D88FB
:1004D0007E888F88988CEE24FF248701AA24BB2471
:1004E000650140E050E060E070E0E0E0F0E0C10174
:1004F00081709070892BE9F0E60CF71C081D191D1E
:100500009A01AB012A0D3B1D4C1D5D1D80E090E062
:10051000A0E0B0E0E614F7040805190520F481E036
:1005200090E0A0E0B0E0BA01A901480F591F6A1F8E
:100530007B1FAA0CBB1CCC1CDD1C97FE08C081E0F5
:1005400090E0A0E0B0E0A82AB92ACA2ADB2A3196B6
:10055000E032F10549F0660C771C881C991C569412
:10056000479437942794C3CFFA85EA892B893C892D
:100570008B859C85280F391F2E5F3F4F17C0CA01FE
:1005800081709070892B61F016950795F794E79428
:1005900080E090E0A0E0B0E8E82AF92A0A2B1B2BC3
:1005A00076956795579547952F5F3F4F77FDE7CF36
:1005B0000CC0440F551F661F771F17FD4160EE0CDE
:1005C000FF1C001F111F21503040403090E05907A0
:1005D00090E0690790E4790760F32B8F3C8FDB0193
:1005E000CA018F779070A070B07080349105A1051A
:1005F000B10561F447FD0AC0E114F10401051105DC
:1006000029F0405C5F4F6F4F7F4F40781A8EFE1786
:1006100011F081E08A8F4D8F5E8F6F8F78A383E01A
:10062000898FCE0149960E947105A096E2E10C9453
:10063000141DA8E1B0E0EFE1F3E00C94001D698324
:100640007A838B839C832D833E834F835887B9E0C5
:10065000EB2EF12CEC0EFD1ECE010196B7010E948F
:1006600046068E010F5E1F4FCE010596B8010E940F
:1006700046062985223008F47EC03989323010F4CC
:10068000B8017CC08A859A8989278A87243011F02D
:10069000223031F4231709F06EC060E670E06EC0BE
:1006A000343039F41D861E861F86188A1C861B86E8
:1006B00004C0323021F484E08987B7015FC02B8504
:1006C0003C858B899C89281B390B3C872B87ED84C3
:1006D000FE840F851889AD88BE88CF88D88CEA142F
:1006E000FB040C051D0540F4EE0CFF1C001F111F40
:1006F000215030403C872B8720E030E040E050E044
:1007000080E090E0A0E0B0E460E070E0EA14FB0478
:100710000C051D0540F0282B392B4A2B5B2BEA18C2
:10072000FB080C091D09B695A79597958795EE0CC2
:10073000FF1C001F111F6F5F7F4F6F31710531F775
:10074000DA01C9018F779070A070B0708034910584
:10075000A105B10561F427FD0AC0E114F10401050A
:10076000110529F0205C3F4F4F4F5F4F20782D87B8
:100770003E874F87588BBE01675F7F4FCB010E943A
:1007800071056896EAE00C941C1DA8E1B0E0EBEC62
:10079000F3E00C94041D69837A838B839C832D83FF
:1007A0003E834F83588789E0E82EF12CEC0EFD1E26
:1007B000CE010196B7010E9446068E010F5E1F4FC3
:1007C000CE010596B8010E9446068985823040F028
:1007D0008989823028F0C701B8010E94BE0601C095
:1007E0008FEF6896E6E00C94201DA8E1B0E0EBEFF7
:1007F000F3E00C94041D69837A838B839C832D839F
:100800003E834F83588789E0E82EF12CEC0EFD1EC5
:10081000CE010196B7010E9446068E010F5E1F4F62
:10082000CE010596B8010E9446068985823040F0C7
:100830008989823028F0C701B8010E94BE0601C034
:100840008FEF6896E6E00C94201DA8E1B0E0EBE2A3
:10085000F4E00C94041D69837A838B839C832D833D
:100860003E834F83588789E0E82EF12CEC0EFD1E65
:10087000CE010196B7010E9446068E010F5E1F4F02
:10088000CE010596B8010E9446068985823040F067
:100890008989823028F0C701B8010E94BE0601C0D4
:1008A00081E06896E6E00C94201DACE0B0E0EBE55A
:1008B000F4E00C94081D69837A838B839C83CE01BA
:1008C0000196BE016B5F7F4F0E9446068D8182308C
:1008D00061F1823050F1843021F48E81882351F10E
:1008E0002EC02F81388537FD20C06E812F31310514
:1008F0001CF06623F9F023C08EE190E0821B930B7D
:1009000029853A854B855C8504C056954795379572
:1009100027958A95D2F76623B1F05095409530958A
:1009200021953F4F4F4F5F4F0EC020E030E040E039
:1009300050E009C02FEF3FEF4FEF5FE704C020E02A
:1009400030E040E050E8B901CA012C96E2E00C9496
:10095000241DA8E0B0E0EFEAF4E00C94001D7B0158
:100960008C01611571058105910519F482E0898377
:1009700060C083E089838EE1C82ED12CDC82CB82DB
:10098000ED82FE820F831887C801B7010E942205FD
:10099000FC013197F7FF3BC0222733272E1B3F0B6B
:1009A00057016801022E04C0D694C794B794A79447
:1009B0000A94D2F740E050E060E070E081E090E01F
:1009C000A0E0B0E004C0880F991FAA1FBB1F2A95A2
:1009D000D2F70197A109B1098E219F21A023B1234C
:1009E0000097A105B10521F041E050E060E070E022
:1009F0004A295B296C297D294D835E836F83788723
:100A00008EE190E08E1B9F0B9C838B8312C03097EE
:100A100081F00E2E04C0EE0CFF1C001F111F0A9463
:100A2000D2F7ED82FE820F831887CE1ADF0ADC82AE
:100A3000CB821A82CE0101960E9471052896EAE0C7
:100A40000C941C1DEF92FF920F931F937B018C015E
:100A500080E0E81680E0F80681E0080780E01807EB
:100A600088F48FEFE816F1040105110531F028F044
:100A700088E090E0A0E0B0E017C080E090E0A0E067
:100A8000B0E012C080E0E81680E0F80680E00807D9
:100A900081E0180728F088E190E0A0E0B0E004C011
:100AA00080E190E0A0E0B0E020E230E040E050E003
:100AB000281B390B4A0B5B0B04C016950795F7945E
:100AC000E7948A95D2F7F701E859FF4F8081281BF8
:100AD000310941095109C9011F910F91FF90EF9010
:100AE0000895DF92EF92FF920F931F93FC01E48031
:100AF000F58006811781D1808081823048F480E0C2
:100B000090E0A0E1B0E0E82AF92A0A2B1B2BA5C04F
:100B1000843009F49FC0823021F4EE24FF24870141
:100B200005C0E114F1040105110519F4E0E0F0E05D
:100B300096C0628173819FEF623879070CF05BC0C9
:100B400022E83FEF261B370B2A3131052CF020E03D
:100B500030E040E050E02AC0B801A701022E04C0F6
:100B600076956795579547950A94D2F781E090E07E
:100B7000A0E0B0E004C0880F991FAA1FBB1F2A95F0
:100B8000D2F70197A109B1098E219F21A023B1239A
:100B90000097A105B10521F081E090E0A0E0B0E070
:100BA0009A01AB01282B392B4A2B5B2BDA01C901A7
:100BB0008F779070A070B07080349105A105B10559
:100BC00039F427FF09C0205C3F4F4F4F5F4F04C0EF
:100BD000215C3F4F4F4F5F4FE0E0F0E02030A0E05E
:100BE0003A07A0E04A07A0E45A0710F0E1E0F0E07D
:100BF00079018A0127C06038710564F5FB01E1586D
:100C0000FF4FD801C7018F779070A070B07080340B
:100C10009105A105B10539F4E7FE0DC080E490E02F
:100C2000A0E0B0E004C08FE390E0A0E0B0E0E80E08
:100C3000F91E0A1F1B1F17FF05C016950795F7948D
:100C4000E794319687E016950795F794E7948A958F
:100C5000D1F705C0EE24FF248701EFEFF0E06E2FFF
:100C6000679566276795902F9F77D794DD24D79453
:100C70008E2F8695492F462B582F5D29B701CA0123
:100C80001F910F91FF90EF90DF900895FC01DB0121
:100C9000408151812281622F6F7770E0221F2227CD
:100CA000221F9381892F880F822B282F30E0991FD4
:100CB0009927991F11969C93119721153105A9F534
:100CC000411551056105710511F482E037C082E8D4
:100CD0009FEF13969C938E9312979A01AB0167E056
:100CE000220F331F441F551F6A95D1F783E08C9361
:100CF0000DC0220F331F441F551F12968D919C91DA
:100D00001397019713969C938E931297203080E04F
:100D1000380780E0480780E4580758F314962D936D
:100D20003D934D935C93179708952F3F310579F4C8
:100D3000411551056105710519F484E08C930895FE
:100D400064FF03C081E08C9312C01C9210C02F5727
:100D5000304013963C932E93129783E08C9387E058
:100D6000440F551F661F771F8A95D1F7706414963C
:100D70004D935D936D937C93179708951F93DC01BA
:100D8000FB019C91923008F447C08081823008F4C6
:100D900043C0943051F411961C91843099F58181AF
:100DA000682F70E0611B71093FC0843021F09230E0
:100DB00031F48230B9F18181882389F12DC01196F7
:100DC0001C9111978230F1F081811817D9F4129695
:100DD0002D913C911397828193818217930794F010
:100DE00028173907BCF014968D919D910D90BC91F8
:100DF000A02D2481358146815781281739074A075C
:100E00005B0718F4112341F00AC082179307A40767
:100E1000B50740F4112319F061E070E005C06FEFF1
:100E20007FEF02C060E070E0CB011F910895DF9377
:100E3000CF93CDB7DEB728970FB6F894DEBF0FBEBD
:100E4000CDBF8A836B834C8319828B81883008F0F5
:100E5000F4C08C81813009F072C08A81282F30E083
:100E600038872F838F8198858130910549F12F81B3
:100E70003885223031052CF48F819885009761F0F8
:100E80005BC02F8138852230310571F18F819885C3
:100E900083309105E9F150C0AAE3B0E0EAE3F0E065
:100EA0008081482F8B81282F30E081E090E0022E56
:100EB00002C0880F991F0A94E2F7842B8C93BFC05D
:100EC000A7E3B0E0E7E3F0E08081482F8B81282F93
:100ED00030E081E090E0022E02C0880F991F0A9452
:100EE000E2F7842B8C93ABC0A4E3B0E0E4E3F0E042
:100EF0008081482F8B81282F30E081E090E0022E06
:100F000002C0880F991F0A94E2F7842B8C9397C034
:100F1000A1E3B0E0E1E3F0E08081482F8B81282F4E
:100F200030E081E090E0022E02C0880F991F0A9401
:100F3000E2F7842B8C9383C081E0898380C08C810D
:100F4000882309F077C08A81282F30E03E832D83E3
:100F50008D819E818130910559F12D813E81223014
:100F600031052CF48D819E81009769F060C02D8140
:100F70003E812230310589F18D819E81833091053A
:100F800009F440C054C0AAE3B0E0EAE3F0E0808195
:100F9000482F8B81282F30E081E090E0022E02C0A4
:100FA000880F991F0A94E2F7809584238C9347C099
:100FB000A7E3B0E0E7E3F0E08081482F8B81282FA2
:100FC00030E081E090E0022E02C0880F991F0A9461
:100FD000E2F7809584238C9332C0A4E3B0E0E4E38D
:100FE000F0E08081482F8B81282F30E081E090E075
:100FF000022E02C0880F991F0A94E2F7809584237D
:101000008C931DC0A1E3B0E0E1E3F0E08081482FC4
:101010008B81282F30E081E090E0022E02C0880F03
:10102000991F0A94E2F7809584238C9308C081E08D
:10103000898305C081E0898302C081E08983898139
:1010400028960FB6F894DEBF0FBECDBFCF91DF91CB
:101050000895DF93CF93CDB7DEB728970FB6F894F6
:10106000DEBF0FBECDBF8A836B834C8319828B8119
:10107000883008F0F4C08C81813009F072C08A8118
:10108000282F30E038872F838F8198858130910514
:1010900049F12F813885223031052CF48F819885D4
:1010A000009761F05BC02F8138852230310571F1E6
:1010B0008F81988583309105E9F150C0ABE3B0E0B2
:1010C000EBE3F0E08081482F8B81282F30E081E036
:1010D00090E0022E02C0880F991F0A94E2F7842B39
:1010E0008C93BFC0A8E3B0E0E8E3F0E08081482F34
:1010F0008B81282F30E081E090E0022E02C0880F23
:10110000991F0A94E2F7842B8C93ABC0A5E3B0E05F
:10111000E5E3F0E08081482F8B81282F30E081E0EB
:1011200090E0022E02C0880F991F0A94E2F7842BE8
:101130008C9397C0A2E3B0E0E2E3F0E08081482F17
:101140008B81282F30E081E090E0022E02C0880FD2
:10115000991F0A94E2F7842B8C9383C081E08983E2
:1011600080C08C81882309F077C08A81282F30E0E5
:101170003E832D838D819E818130910559F12D8192
:101180003E81223031052CF48D819E81009769F0DB
:1011900060C02D813E812230310589F18D819E8193
:1011A0008330910509F440C054C0ABE3B0E0EBE3F9
:1011B000F0E08081482F8B81282F30E081E090E0A3
:1011C000022E02C0880F991F0A94E2F780958423AB
:1011D0008C9347C0A8E3B0E0E8E3F0E08081482FBB
:1011E0008B81282F30E081E090E0022E02C0880F32
:1011F000991F0A94E2F7809584238C9332C0A5E36B
:10120000B0E0E5E3F0E08081482F8B81282F30E0CB
:1012100081E090E0022E02C0880F991F0A94E2F745
:10122000809584238C931DC0A2E3B0E0E2E3F0E05C
:101230008081482F8B81282F30E081E090E0022EC2
:1012400002C0880F991F0A94E2F7809584238C933B
:1012500008C081E0898305C081E0898302C081E004
:101260008983898128960FB6F894DEBF0FBECDBF63
:10127000CF91DF910895DF93CF9300D000D00F92EC
:10128000CDB7DEB78A836B8319828B81883008F0F3
:1012900072C08A81282F30E03D832C838C819D8110
:1012A0008130910549F12C813D81223031052CF4AA
:1012B0008C819D81009761F05BC02C813D81223043
:1012C000310571F18C819D8183309105E9F150C028
:1012D000ABE3B0E0EBE3F0E08081482F8B81282F77
:1012E00030E081E090E0022E02C0880F991F0A943E
:1012F000E2F784278C9341C0A8E3B0E0E8E3F0E094
:101300008081482F8B81282F30E081E090E0022EF1
:1013100002C0880F991F0A94E2F784278C932DC08E
:10132000A5E3B0E0E5E3F0E08081482F8B81282F32
:1013300030E081E090E0022E02C0880F991F0A94ED
:10134000E2F784278C9319C0A2E3B0E0E2E3F0E077
:101350008081482F8B81282F30E081E090E0022EA1
:1013600002C0880F991F0A94E2F784278C9305C066
:1013700081E0898302C081E0898389810F900F9089
:101380000F900F900F90CF91DF910895DF93CF933F
:10139000CDB7DEB727970FB6F894DEBF0FBECDBF2F
:1013A0008A836B835D834C8319828B81883008F03C
:1013B00074C08A81282F30E03F832E834E815F8165
:1013C0004130510559F18E819F818230910534F46D
:1013D0002E813F812115310569F05CC04E815F810E
:1013E0004230510579F18E819F818330910509F456
:1013F0003DC050C0E9E3F0E08081282F30E08B81D0
:10140000882F90E0A90102C0559547958A95E2F78B
:10141000CA018170EC81FD81808341C0E6E3F0E088
:101420008081282F30E08B81882F90E0A90102C0B5
:10143000559547958A95E2F7CA018170EC81FD8147
:1014400080832DC0E3E3F0E08081282F30E08B81A2
:10145000882F90E0A90102C0559547958A95E2F73B
:10146000CA018170EC81FD81808319C0E0E3F0E066
:101470008081282F30E08B81882F90E0A90102C065
:10148000559547958A95E2F7CA018170EC81FD81F7
:10149000808305C081E0898302C081E089838981DE
:1014A00027960FB6F894DEBF0FBECDBFCF91DF9168
:1014B0000895DF93CF9300D000D00F92CDB7DEB761
:1014C0008A836B8319828A81282F30E03D832C83A5
:1014D0008C819D8181309105D1F02C813D8122301C
:1014E00031052CF48C819D81009761F01FC02C8107
:1014F0003D812230310581F08C819D8183309105C1
:1015000081F014C0EAE3F0E08B81808311C0E7E34F
:10151000F0E08B8180830CC0E4E3F0E08B8180837A
:1015200007C0E1E3F0E08B81808302C081E0898322
:1015300089810F900F900F900F900F90CF91DF91B6
:101540000895DF93CF9300D000D00F92CDB7DEB7D0
:101550008A836B8319828A81282F30E03D832C8314
:101560008C819D8181309105D1F02C813D8122308B
:1015700031052CF48C819D81009761F01FC02C8176
:101580003D812230310581F08C819D818330910530
:1015900081F014C0EBE3F0E08B81808311C0E8E3BD
:1015A000F0E08B8180830CC0E5E3F0E08B818083E9
:1015B00007C0E2E3F0E08B81808302C081E0898391
:1015C00089810F900F900F900F900F90CF91DF9126
:1015D0000895DF93CF93CDB7DEB77894CF91DF91A5
:1015E0000895DF93CF93CDB7DEB7F894CF91DF9115
:1015F0000895DF93CF9300D000D0CDB7DEB79C83A2
:101600008B83EB81FC818081EB81FC8191819E0148
:101610002E5F3F4F692FA9010E94C6098A81813040
:1016200011F4198205C08A81882311F481E089832D
:1016300089810F900F900F900F90CF91DF910895B7
:10164000DF93CF9300D00F92CDB7DEB79B838A8311
:1016500019828A819B810097A9F0EA81FB818081B0
:10166000EA81FB819181692F40E00E942908EA818B
:10167000FB818081EA81FB819281692F41E00E9498
:10168000290802C082E0898389810F900F900F9012
:10169000CF91DF910895DF93CF9300D00F92CDB714
:1016A000DEB79B838A8319828A819B810097A9F088
:1016B000EA81FB818081EA81FB819281692F40E090
:1016C0000E942908EA81FB818081EA81FB81918166
:1016D000692F41E00E94290802C082E08983898144
:1016E0000F900F900F90CF91DF910895DF93CF93DC
:1016F00000D00F92CDB7DEB79B838A8319828A818F
:101700009B810097A9F0EA81FB818081EA81FB81BE
:101710009281692F41E00E942908EA81FB81808142
:10172000EA81FB819181692F41E00E94290802C072
:1017300082E0898389810F900F900F90CF91DF9184
:101740000895DF93CF93CDB7DEB7EAE3F0E08CEFF7
:101750008083E7E3F0E08FEF8083E4E3F0E08FEF56
:101760008083E1E3F0E08EEB8083EBE3F0E083E065
:101770008083E8E3F0E01082E5E3F0E01082E2E34A
:10178000F0E081E08083CF91DF910895DF93CF93E4
:1017900000D000D00F92CDB7DEB70E94A10B0E94FF
:1017A000E0170E94E90A82E089831B8282E08A8333
:1017B000CE0101960E943E0D8AEF0E9428152AEE66
:1017C0003CE081E0B9010E94031581E00E943914D8
:1017D00010929D0181E080939E0182E080939C01A4
:1017E00082E080939A0183E080939B0182E0809362
:1017F00099018AE691E02AE33CE061E0A9010E94B8
:10180000C81980916A01282F30E03D832C838C8198
:101810009D8186349105B1F02C813D8127343105BD
:1018200034F48C819D818234910591F0E2CF2C813A
:101830003D812C343105C1F08C819D81823591052B
:1018400069F0D7CF86E462E370E00E94410CD1CF0B
:1018500082E462E370E00E94410CCBCF82E562E358
:1018600070E00E94410CC5CF8CE462E370E00E94FE
:10187000410CBFCFDF93CF93CDB7DEB7CF91DF91D0
:101880000895DF93CF93CDB7DEB761970FB6F89485
:10189000DEBF0FBECDBF8F87798B688B8F8580931E
:1018A0006C0181E00E94B21388899989CC01A0E083
:1018B000B0E0BC01CD010E94A904DC01CB018B8703
:1018C0009C87AD87BE876B857C858D859E8520E056
:1018D00030E04AEF54E40E941F02DC01CB018F8309
:1018E0009887A987BA876F81788589859A8520E04E
:1018F00030E040E85FE30E94250488232CF481E077
:1019000090E09E838D833FC06F81788589859A851D
:1019100020E03FEF4FE757E40E94C50318164CF54F
:101920006B857C858D859E8520E030E040E251E42A
:101930000E941F02DC01CB01BC01CD010E944900C5
:10194000DC01CB019E838D830FC088EC90E09C83EB
:101950008B838B819C810197F1F79C838B838D8195
:101960009E8101979E838D838D819E81009769F76B
:1019700014C06F81788589859A850E944900DC01B1
:10198000CB019E838D838D819E819A8389838981FA
:101990009A810197F1F79A8389830E94D80C619606
:1019A0000FB6F894DEBF0FBECDBFCF91DF91089583
:1019B000DF93CF93CDB7DEB781E00E9439148CE975
:1019C00091E00E94760B89E991E00E94760BCF911D
:1019D000DF910895DF93CF93CDB7DEB780916B0190
:1019E0008F5F80936B0190916B01809168019817D4
:1019F000A1F580916C01863449F48CE991E00E9454
:101A00004B0B89E991E00E944B0B35C080916C0132
:101A1000823449F48CE991E00E94200B89E991E03D
:101A20000E94200B28C080916C01823549F489E91D
:101A300091E00E94200B8CE991E00E944B0B1BC0AF
:101A400080916C018C34B9F489E991E00E944B0BD0
:101A50008CE991E00E94200B0EC080916B018431D3
:101A600051F48CE991E00E94760B89E991E00E94A3
:101A7000760B10926B01CF91DF910895DF93CF9396
:101A8000CDB7DEB727970FB6F894DEBF0FBECDBF38
:101A90009B838A8319828A819B81009709F4DEC027
:101AA00080916D01882309F0D6C081E080936D019B
:101AB000EA81FB818181282F30E03F832E838E8154
:101AC0009F818130910521F12E813F8122303105A6
:101AD0002CF48E819F81009761F046C02E813F815A
:101AE0002230310521F18E819F818330910571F182
:101AF0003BC0A3E5B0E0E3E5F0E080818F7B8C9311
:101B0000A3E5B0E0E3E5F0E08081877F8C932CC013
:101B1000A3E5B0E0E3E5F0E0808180648C93A3E589
:101B2000B0E0E3E5F0E08081877F8C931DC0A3E502
:101B3000B0E0E3E5F0E080818F7B8C93A3E5B0E03B
:101B4000E3E5F0E0808188608C930EC0A3E5B0E00F
:101B5000E3E5F0E0808180648C93A3E5B0E0E3E509
:101B6000F0E0808188608C93A3E5B0E0E3E5F0E0ED
:101B700080818F7C8C93EA81FB818181882329F08D
:101B8000EA81FB8181818230E1F4EA81FB818281FB
:101B90008430A0F4A3E5B0E0E3E5F0E08081282FF5
:101BA000EA81FB818281882F90E082959295907FD7
:101BB0009827807F9827822B8C933BC081E0898374
:101BC00038C0EA81FB818181833029F0EA81FB8181
:101BD0008181813071F5EA81FB818281282F30E09B
:101BE0003D832C838C819D818430910581F02C81F3
:101BF0003D812530310599F08C819D810097B9F4A4
:101C0000E3E5F0E0A3E5B0E08C91808312C0A3E5AA
:101C1000B0E0E3E5F0E0808180628C930AC0A3E548
:101C2000B0E0E3E5F0E0808180638C9302C081E066
:101C30008983A3E5B0E0E3E5F0E08081887F8C93C1
:101C4000A3E5B0E0E3E5F0E09081EA81FB818081EB
:101C5000892B8C9305C084E0898302C082E089834C
:101C6000898127960FB6F894DEBF0FBECDBFCF9106
:101C7000DF910895DF93CF93CDB7DEB729970FB6E5
:101C8000F894DEBF0FBECDBF9B838A8319828A8101
:101C90009B81009709F471C180916E01882309F03E
:101CA00069C181E080936E01AFE4B0E0EFE4F0E061
:101CB00080818C7F8C93AEE4B0E0EEE4F0E0808134
:101CC000877E8C93AFE4B0E0EFE4F0E08081982F62
:101CD000EA81FB8181818370892B8C93AEE4B0E033
:101CE000EEE4F0E08081282FEA81FB8181818695F6
:101CF0008695882F90E083709070880F991F880FC9
:101D0000991F880F991F822B8C93EA81FB81818117
:101D1000282F30E039872887888599858C30910570
:101D2000B4F428853985253031050CF070C08885DC
:101D3000998584309105C4F4288539852130310591
:101D40000CF065C088859985009771F0FFC02885E3
:101D500039852C30310541F0888599850E97823080
:101D6000910508F0F3C053C0EA81FB818281843081
:101D7000F0F4AFE4B0E0EFE4F0E080818F738C9397
:101D8000AFE4B0E0EFE4F0E08081282FEA81FB814E
:101D90008281882F90E000249695879507949695E8
:101DA00087950794982F802D822B8C9307C0EA810A
:101DB000FB818281863011F081E08983EA81FB8199
:101DC00083818430D8F4AFE4B0E0EFE4F0E08081C8
:101DD0008F7C8C93AFE4B0E0EFE4F0E08081282FBB
:101DE000EA81FB818381882F90E082959295907F94
:101DF0009827807F9827822B8C93AAC0EA81FB8149
:101E00008381863009F4A4C081E08983A1C0EA817E
:101E1000FB818281282F30E03F832E838E819F813A
:101E20008430910519F12E813F81253031052CF444
:101E30008E819F81009761F037C02E813F812530D0
:101E4000310519F18E819F818630910579F12CC081
:101E5000AFE4B0E0EFE4F0E080818F738C93AFE407
:101E6000B0E0EFE4F0E080818C9320C0AFE4B0E01C
:101E7000EFE4F0E080818F738C93AFE4B0E0EFE4A7
:101E8000F0E0808180688C9311C0AFE4B0E0EFE4B3
:101E9000F0E080818F738C93AFE4B0E0EFE4F0E08A
:101EA0008081806C8C9302C081E08983EA81FB8110
:101EB0008381282F30E03D832C838C819D81843069
:101EC000910519F12C813D81253031052CF48C814F
:101ED0009D81009761F037C02C813D81253031050F
:101EE00019F18C819D818630910591F12CC0AFE470
:101EF000B0E0EFE4F0E080818F7C8C93AFE4B0E061
:101F0000EFE4F0E080818C9323C0AFE4B0E0EFE435
:101F1000F0E080818F7C8C93AFE4B0E0EFE4F0E000
:101F2000808180628C9314C0AFE4B0E0EFE4F0E015
:101F300080818F7C8C93AFE4B0E0EFE4F0E08081AF
:101F400080638C9305C081E0898302C081E089832E
:101F5000AEE4B0E0EEE4F0E08081887F8C93AEE404
:101F6000B0E0EEE4F0E09081EA81FB818081892B92
:101F70008C9305C084E0898302C082E089838981D3
:101F800029960FB6F894DEBF0FBECDBFCF91DF917B
:101F90000895DF93CF93CDB7DEB727970FB6F894A8
:101FA000DEBF0FBECDBF9B838A8319828A819B814E
:101FB000009709F4DEC080916F01882309F0D6C034
:101FC00081E080936F01EA81FB818181282F30E0DD
:101FD0003F832E838E819F818130910521F12E8157
:101FE0003F81223031052CF48E819F81009761F072
:101FF00046C02E813F812230310521F18E819F81A3
:102000008330910571F13BC0A5E4B0E0E5E4F0E078
:1020100080818F7B8C93A5E4B0E0E5E4F0E08081E3
:10202000877F8C932CC0A5E4B0E0E5E4F0E08081EC
:1020300080648C93A5E4B0E0E5E4F0E08081877FE4
:102040008C931DC0A5E4B0E0E5E4F0E080818F7BD7
:102050008C93A5E4B0E0E5E4F0E0808188608C93A7
:102060000EC0A5E4B0E0E5E4F0E0808180648C93EC
:10207000A5E4B0E0E5E4F0E0808188608C93A5E41D
:10208000B0E0E5E4F0E080818F7C8C93EA81FB8115
:102090008181882329F0EA81FB8181818230E1F40A
:1020A000EA81FB8182818430A0F4A5E4B0E0E5E41C
:1020B000F0E08081282FEA81FB818281882F90E0E7
:1020C00082959295907F9827807F9827822B8C937A
:1020D0003BC081E0898338C0EA81FB818181833004
:1020E00029F0EA81FB818181813071F5EA81FB81F0
:1020F0008281282F30E03D832C838C819D81843028
:10210000910581F02C813D812530310599F08C813C
:102110009D810097B9F4E5E4F0E0A5E4B0E08C918E
:10212000808312C0A5E4B0E0E5E4F0E08081806245
:102130008C930AC0A5E4B0E0E5E4F0E08081806320
:102140008C9302C081E08983A5E4B0E0E5E4F0E08F
:102150008081887F8C93A5E4B0E0E5E4F0E0908195
:10216000EA81FB818081892B8C9305C084E089837F
:1021700002C082E08983898127960FB6F894DEBF7A
:102180000FBECDBFCF91DF910895DF93CF9300D0E5
:1021900000D000D0CDB7DEB79B838A836C831982D1
:1021A0008A819B81009709F460C0A3E5B0E0E3E574
:1021B000F0E080818F7C8C93EA81FB818181882390
:1021C00029F0EA81FB8181818230C1F48C818430E5
:1021D00090F4A3E5B0E0E3E5F0E08081282F8C8166
:1021E000882F90E082959295907F9827807F9827FE
:1021F000822B8C933CC081E0898339C0EA81FB81CA
:102200008181833029F0EA81FB818181813079F5F8
:102210008C81282F30E03E832D838D819E818430F8
:10222000910581F02D813E812530310599F08D8118
:102230009E810097B9F4E3E5F0E0A3E5B0E08C916E
:10224000808315C0A3E5B0E0E3E5F0E08081806223
:102250008C930DC0A3E5B0E0E3E5F0E080818063FE
:102260008C9305C081E0898302C082E089838981E3
:1022700026960FB6F894DEBF0FBECDBFCF91DF918B
:102280000895DF93CF93CDB7DEB728970FB6F894B4
:10229000DEBF0FBECDBF9B838A836C8319828A8188
:1022A0009B81009709F4A5C0EA81FB818181282FD9
:1022B00030E038872F838F8198858C309105ACF47E
:1022C0002F813885253031050CF042C08F819885EB
:1022D00084309105BCF42F81388521303105C4F557
:1022E0008F819885009771F081C02F8138852C30BF
:1022F000310541F08F8198850E978230910508F065
:1023000075C026C08C818430E0F4AFE4B0E0EFE427
:10231000F0E080818F738C93AFE4B0E0EFE4F0E005
:102320008081282F8C81882F90E0002496958795B6
:102330000794969587950794982F802D822B8C93E0
:102340005AC08C81863009F456C081E0898353C01D
:102350008C81282F30E03E832D838D819E818430B7
:10236000910519F12D813E81253031052CF48D81A7
:102370009E81009761F037C02D813E812530310567
:1023800019F18D819E8186309105A9F12CC0AFE4B1
:10239000B0E0EFE4F0E080818F738C93AFE4B0E0C5
:1023A000EFE4F0E080818C9326C0AFE4B0E0EFE48E
:1023B000F0E080818F738C93AFE4B0E0EFE4F0E065
:1023C000808180688C9317C0AFE4B0E0EFE4F0E068
:1023D00080818F738C93AFE4B0E0EFE4F0E0808114
:1023E000806C8C9308C081E0898305C081E089837B
:1023F00002C082E08983898128960FB6F894DEBFF7
:102400000FBECDBFCF91DF910895DF93CF93CDB7AE
:10241000DEB728970FB6F894DEBF0FBECDBF9B8303
:102420008A836C8319828A819B81009709F4A2C0F8
:10243000EA81FB818181282F30E038872F838F81CB
:1024400098858C309105ACF42F8138852530310585
:102450000CF03FC08F81988584309105BCF42F81AA
:10246000388521303105ACF58F819885009771F062
:102470007EC02F8138852C30310541F08F819885C1
:102480000E978230910508F072C023C08C81843091
:10249000C8F4AFE4B0E0EFE4F0E080818F7C8C938F
:1024A000AFE4B0E0EFE4F0E08081282F8C81882F4A
:1024B00090E082959295907F9827807F9827822B35
:1024C0008C935AC08C81863009F456C081E0898390
:1024D00053C08C81282F30E03E832D838D819E81D7
:1024E0008430910519F12D813E81253031052CF480
:1024F0008D819E81009761F037C02D813E8125300E
:10250000310519F18D819E8186309105A9F12CC08C
:10251000AFE4B0E0EFE4F0E080818F7C8C93AFE437
:10252000B0E0EFE4F0E080818C9326C0AFE4B0E04F
:10253000EFE4F0E080818F7C8C93AFE4B0E0EFE4D7
:10254000F0E0808180628C9317C0AFE4B0E0EFE4EC
:10255000F0E080818F7C8C93AFE4B0E0EFE4F0E0BA
:10256000808180638C9308C081E0898305C081E00D
:10257000898302C082E08983898128960FB6F89406
:10258000DEBF0FBECDBFCF91DF910895DF93CF9314
:10259000CDB7DEB728970FB6F894DEBF0FBECDBF1C
:1025A0009B838A836C8319828A819B81009709F4BB
:1025B000CDC0EA81FB818181282F30E038872F83CD
:1025C0008F8198858130910521F12F8138852230C6
:1025D00031052CF48F819885009761F046C02F81DA
:1025E00038852230310521F18F819885833091051E
:1025F00071F13BC0A5E4B0E0E5E4F0E080818F7BC1
:102600008C93A5E4B0E0E5E4F0E08081877F8C93D3
:102610002CC0A5E4B0E0E5E4F0E0808180648C9318
:10262000A5E4B0E0E5E4F0E08081877F8C931DC0F5
:10263000A5E4B0E0E5E4F0E080818F7B8C93A5E435
:10264000B0E0E5E4F0E0808188608C930EC0A5E402
:10265000B0E0E5E4F0E0808180648C93A5E4B0E034
:10266000E5E4F0E0808188608C93A5E4B0E0E5E4E7
:10267000F0E080818F7C8C93EA81FB8181818823CB
:1026800029F0EA81FB8181818230C1F48C81843020
:1026900090F4A5E4B0E0E5E4F0E08081282F8C819F
:1026A000882F90E082959295907F9827807F982739
:1026B000822B8C9339C081E0898336C0EA81FB810B
:1026C0008181833029F0EA81FB818181813061F54C
:1026D0008C81282F30E03E832D838D819E81843034
:1026E000910581F02D813E812530310599F08D8154
:1026F0009E810097B9F4E5E4F0E0A5E4B0E08C91A8
:10270000808312C0A5E4B0E0E5E4F0E0808180625F
:102710008C930AC0A5E4B0E0E5E4F0E0808180633A
:102720008C9302C081E08983A5E4B0E0E5E4F0E0A9
:102730008081887F8C93A5E4B0E0E5E4F0E09081AF
:10274000EA81FB818081892B8C9302C082E089839E
:10275000898128960FB6F894DEBF0FBECDBFCF910A
:10276000DF910895DF93CF9300D000D0CDB7DEB7CF
:102770008A8319828A81282F30E03C832B838B81C6
:102780009C818330910509F442C02B813C81243027
:1027900031057CF48B819C818130910541F12B8145
:1027A0003C81223031055CF58B819C810097B9F02A
:1027B00056C02B813C8125303105C9F18B819C812C
:1027C0008530910564F12B813C812630310509F477
:1027D0003EC08B819C818730910589F140C0A9E57D
:1027E000B0E0E9E5F0E0808181608C933AC0A9E532
:1027F000B0E0E9E5F0E0808182608C9332C0A9E529
:10280000B0E0E9E5F0E0808184608C932AC0A9E51E
:10281000B0E0E9E5F0E0808180618C9322C0A9E519
:10282000B0E0E9E5F0E0808188608C931AC0A9E50A
:10283000B0E0E9E5F0E0808180628C9312C0A9E508
:10284000B0E0E9E5F0E0808180688C930AC0A9E5FA
:10285000B0E0E9E5F0E0808180648C9302C081E023
:10286000898389810F900F900F900F90CF91DF9106
:102870000895DF93CF9300D000D0CDB7DEB78A8321
:1028800019828A81282F30E03C832B838B819C81A5
:102890008330910509F442C02B813C8124303105FD
:1028A0007CF48B819C818130910541F12B813C81AD
:1028B000223031055CF58B819C810097B9F056C0C0
:1028C0002B813C8125303105C9F18B819C8185307C
:1028D000910564F12B813C812630310509F43EC01D
:1028E0008B819C818730910589F140C0A9E5B0E0DA
:1028F000E9E5F0E080818E7F8C933AC0A9E5B0E0F5
:10290000E9E5F0E080818D7F8C9332C0A9E5B0E0ED
:10291000E9E5F0E080818B7F8C932AC0A9E5B0E0E7
:10292000E9E5F0E080818F7E8C9322C0A9E5B0E0DC
:10293000E9E5F0E08081877F8C931AC0A9E5B0E0DB
:10294000E9E5F0E080818F7D8C9312C0A9E5B0E0CD
:10295000E9E5F0E080818F778C930AC0A9E5B0E0CB
:10296000E9E5F0E080818F7B8C9302C081E0898370
:1029700089810F900F900F900F90CF91DF91089564
:10298000DF93CF9300D000D0CDB7DEB78A83198212
:102990008A81282F30E03C832B838B819C8181307E
:1029A000910599F02B813C8122303105C1F08B815A
:1029B0009C810097F1F410926D01A3E5B0E0E3E58E
:1029C000F0E08081887F8C9316C010926E01AEE497
:1029D000B0E0EEE4F0E08081887F8C930CC0109230
:1029E0006F01A5E4B0E0E5E4F0E08081887F8C939E
:1029F00002C081E0898389810F900F900F900F9022
:102A0000CF91DF910895DF93CF9300D000D0CDB761
:102A1000DEB78A837C836B8319828B819C810097CC
:102A200069F08A81882F90E0880F991FFC01E05996
:102A3000FE4F8B819C819183808302C082E08983D9
:102A400089810F900F900F900F90CF91DF91089593
:102A5000DF93CF930F92CDB7DEB78983ECE5F0E03B
:102A6000898180830F90CF91DF910895DF93CF9379
:102A70000F92CDB7DEB78983E2E5F0E089818083EC
:102A80000F90CF91DF910895DF93CF93CDB7DEB74D
:102A9000E2E5F0E08081CF91DF910895DF93CF935D
:102AA0000F92CDB7DEB78983E3E4F0E089818083BC
:102AB0000F90CF91DF910895DF93CF930F92CDB711
:102AC000DEB78983E4E4F0E0898180830F90CF91C1
:102AD000DF910895DF93CF93CDB7DEB7E4E4F0E064
:102AE0008081CF91DF910895DF93CF9300D0CDB750
:102AF000DEB79A838983EAE4F0E089819A81918341
:102B000080830F900F90CF91DF910895DF93CF9343
:102B100000D0CDB7DEB79A838983E8E4F0E08981FD
:102B20009A81918380830F900F90CF91DF910895C8
:102B3000DF93CF9300D0CDB7DEB79A838983ECE4DF
:102B4000F0E089819A81918380830F900F90CF91DB
:102B5000DF910895DF93CF9300D0CDB7DEB79A838E
:102B60008983E6E4F0E089819A81918380830F90E4
:102B70000F90CF91DF910895DF93CF93CDB7DEB75C
:102B8000ECE4F0E080819181CF91DF910895DF93B3
:102B9000CF93CDB7DEB7E6E4F0E080819181CF91AD
:102BA000DF910895DF93CF9300D000D0CDB7DEB78B
:102BB0008A8319828A81282F30E03C832B838B8182
:102BC0009C81009731F02B813C812130310549F007
:102BD00010C0AEE4B0E0EEE4F0E0808180648C935D
:102BE0000AC0AEE4B0E0EEE4F0E080818F7B8C932D
:102BF00002C081E0898389810F900F900F900F9020
:102C0000CF91DF910895DF93CF93CDB7DEB7A1E4E5
:102C1000B0E0E1E4F0E0808188608C93CF91DF91B7
:102C20000895DF93CF93CDB7DEB7A1E4B0E0E1E440
:102C3000F0E0808188618C93A1E4B0E0E1E4F0E011
:102C40008081877F8C93CF91DF910895DF93CF931D
:102C500000D0CDB7DEB78A8319828A81883080F4AC
:102C6000A1E4B0E0E1E4F0E08081887F8C93A1E40E
:102C7000B0E0E1E4F0E090818A81892B8C9302C07E
:102C800081E0898389810F900F90CF91DF91089522
:102C90001F920F920FB60F9211242F933F934F93D1
:102CA0005F936F937F938F939F93AF93BF93EF93B4
:102CB000FF93DF93CF93CDB7DEB7809170019091F2
:102CC0007101009729F0E0917001F091710109956F
:102CD000CF91DF91FF91EF91BF91AF919F918F9134
:102CE0007F916F915F914F913F912F910F900FBE08
:102CF0000F901F9018951F920F920FB60F921124EC
:102D00002F933F934F935F936F937F938F939F93F3
:102D1000AF93BF93EF93FF93DF93CF93CDB7DEB71E
:102D20008091720190917301009729F0E0917201F6
:102D3000F09173010995CF91DF91FF91EF91BF91D0
:102D4000AF919F918F917F916F915F914F913F9143
:102D50002F910F900FBE0F901F9018951F920F92FA
:102D60000FB60F9211242F933F934F935F936F935E
:102D70007F938F939F93AF93BF93EF93FF93DF93D3
:102D8000CF93CDB7DEB78091740190917501009714
:102D900029F0E0917401F09175010995CF91DF91CF
:102DA000FF91EF91BF91AF919F918F917F916F9123
:102DB0005F914F913F912F910F900FBE0F901F90F9
:102DC00018951F920F920FB60F9211242F933F93D5
:102DD0004F935F936F937F938F939F93AF93BF9323
:102DE000EF93FF93DF93CF93CDB7DEB78091780158
:102DF00090917901009729F0E0917801F0917901A3
:102E00000995CF91DF91FF91EF91BF91AF919F9184
:102E10008F917F916F915F914F913F912F910F9083
:102E20000FBE0F901F9018951F920F920FB60F9222
:102E300011242F933F934F935F936F937F938F93BF
:102E40009F93AF93BF93EF93FF93DF93CF93CDB750
:102E5000DEB78091760190917701009729F0E0919B
:102E60007601F09177010995CF91DF91FF91EF9174
:102E7000BF91AF919F918F917F916F915F914F9192
:102E80003F912F910F900FBE0F901F9018951F929A
:102E90000F920FB60F9211242F933F934F935F938E
:102EA0006F937F938F939F93AF93BF93EF93FF9312
:102EB000DF93CF93CDB7DEB780917A0190917B01FC
:102EC000009729F0E0917A01F0917B010995CF916B
:102ED000DF91FF91EF91BF91AF919F918F917F9182
:102EE0006F915F914F913F912F910F900FBE0F9077
:102EF0001F9018951F920F920FB60F9211242F93C7
:102F00003F934F935F936F937F938F939F93AF9371
:102F1000BF93EF93FF93DF93CF93CDB7DEB780914D
:102F20007C0190917D01009729F0E0917C01F09166
:102F30007D010995CF91DF91FF91EF91BF91AF9105
:102F40009F918F917F916F915F914F913F912F91C1
:102F50000F900FBE0F901F9018951F920F920FB6F3
:102F60000F9211242F933F934F935F936F937F930F
:102F70008F939F93AF93BF93EF93FF93DF93CF9381
:102F8000CDB7DEB780917E0190917F01009729F047
:102F9000E0917E01F0917F010995CF91DF91FF9142
:102FA000EF91BF91AF919F918F917F916F915F91C1
:102FB0004F913F912F910F900FBE0F901F9018953A
:102FC000DF93CF930F92CDB7DEB71982AAE2B0E0BC
:102FD000EAE2F0E0808180618C93AAE2B0E0EAE26C
:102FE000F0E0808188608C93ABE2B0E0EBE2F0E04F
:102FF00080818D7F8C938981897F8983898182609B
:103000008983898184608983AAE2B0E0EAE2F0E002
:1030100080818B7F8C9389818F7B898389818F7E4F
:10302000898389818F7D89838981877F898389814C
:1030300080688983E0E4F0E089818083E9E2F0E060
:1030400083E380830F90CF91DF910895DF93CF9337
:10305000CDB7DEB727970FB6F894DEBF0FBECDBF52
:103060009F838E831D8219821A821B821C8280910B
:103070008C01882321F080918E018130E9F581E077
:1030800080938C010BC089819A81AB81BC810196B0
:10309000A11DB11D89839A83AB83BC83EBE2F0E071
:1030A0008081829586958770882F90E081709070DE
:1030B000009761F489819A81AB81BC81803A26E8CE
:1030C000920721E0A20720E0B207E8F289819A8105
:1030D000AB81BC81803A26E8920721E0A20720E07C
:1030E000B20719F483E08D8304C0ECE2F0E08E8136
:1030F000808310928C0102C084E08D838D8127969D
:103100000FB6F894DEBF0FBECDBFCF91DF9108950B
:10311000DF93CF93CDB7DEB727970FB6F894DEBF16
:103120000FBECDBF9F838E831D8219821A821B82A0
:103130001C828E819F81009709F443C080918D018C
:10314000882321F080918E018130C1F581E0809348
:103150008D010BC089819A81AB81BC810196A11D33
:10316000B11D89839A83AB83BC83EBE2F0E080815D
:10317000882364F089819A81AB81BC81803A26E8FA
:10318000920721E0A20720E0B20720F389819A810B
:10319000AB81BC81803A26E8920721E0A20720E0BB
:1031A000B20719F483E08D8306C0EE81FF81ACE2A3
:1031B000B0E08C91808310928D0105C084E08D83F6
:1031C00002C082E08D838D8127960FB6F894DEBF12
:1031D0000FBECDBFCF91DF910895DF93CF9300D085
:1031E00000D000D0CDB7DEB79D838C836E831B8269
:1031F0001A8219828C819D81009779F180918C01CE
:10320000882341F581E080938C0181E080938E01D9
:10321000198217C02C813D818981882F90E0F901A6
:10322000E80FF91F8081882F90E00E9426188A837A
:103230008A81882319F081E08B8307C089818F5FA1
:10324000898399818E81981728F310928E011092AC
:103250008C0105C084E08B8302C082E08B838B816C
:1032600026960FB6F894DEBF0FBECDBFCF91DF918B
:103270000895DF93CF9300D000D000D0CDB7DEB754
:103280009D838C836E831B821A8219828C819D811F
:10329000009771F180918D01882339F581E0809349
:1032A0008D0181E080938F01198216C08981882F5A
:1032B00090E09C01220F331F8C819D81820F931F10
:1032C0000E9488188A838A81882319F081E08B8381
:1032D00007C089818F5F898399818E81981730F328
:1032E00010928F0110928D0105C084E08B8302C083
:1032F00082E08B838B8126960FB6F894DEBF0FBEDB
:10330000CDBFCF91DF910895DF93CF9300D000D050
:1033100000D0CDB7DEB79B838A836C835E834D83F9
:1033200019828A819B81009739F18D819E81009756
:1033300019F180918C018823E1F481E080938C0164
:103340008A819B8190938401809383018C818093F7
:1033500082018D819E8190938101809380011092E2
:103360008501AAE2B0E0EAE2F0E0808180628C931D
:1033700005C084E0898302C082E089838981269622
:103380000FB6F894DEBF0FBECDBFCF91DF91089589
:10339000DF93CF9300D000D000D0CDB7DEB79B83B2
:1033A0008A836C835E834D8319828A819B81009717
:1033B00039F18D819E81009719F180918D018823CB
:1033C000E1F481E080938D018A819B8190938A0151
:1033D000809389018C81809388018D819E81909357
:1033E00087018093860110928B01AAE2B0E0EAE2A5
:1033F000F0E0808180688C9305C084E0898302C0FE
:1034000082E08983898126960FB6F894DEBF0FBECD
:10341000CDBFCF91DF9108951F920F920FB60F92FB
:1034200011242F933F934F935F936F937F938F93C9
:103430009F93AF93BF93EF93FF93DF93CF93CDB75A
:10344000DEB78091890190918A019C0180918B0166
:10345000882F90E0D901A80FB91FECE2F0E080813D
:103460008C9380918B018F5F80938B0190918B0166
:10347000809188019817A1F4AAE2B0E0EAE2F0E0B6
:1034800080818F778C9310928D018091860190912D
:103490008701009729F0E0918601F0918701099555
:1034A000CF91DF91FF91EF91BF91AF919F918F915C
:1034B0007F916F915F914F913F912F910F900FBE30
:1034C0000F901F9018951F920F920FB60F92112414
:1034D0002F933F934F935F936F937F938F939F931C
:1034E000AF93BF93EF93FF93DF93CF93CDB7DEB747
:1034F000ACE2B0E080918301909184019C018091C5
:103500008501882F90E0F901E80FF91F80818C93E5
:10351000809185018F5F80938501909185018091D5
:1035200082019817A1F4AAE2B0E0EAE2F0E080811B
:103530008F7D8C9310928C018091800190918101FC
:10354000009729F0E0918001F09181010995CF91D8
:10355000DF91FF91EF91BF91AF919F918F917F91FB
:103560006F915F914F913F912F910F900FBE0F90F0
:103570001F9018951F920F920FB60F921124DF9390
:10358000CF93CDB7DEB7CF91DF910F900FBE0F90E5
:103590001F901895DF93CF93CDB7DEB7AA970FB6DC
:1035A000F894DEBF0FBECDBF98A78FA37AA769A7F7
:1035B0001AA219A21D8E1E8E1F8E18A2198E1A8E87
:1035C0001B8E1C8E82E08BA31CA21DA21EA2CE010C
:1035D00083960E943A0E89A389A1882309F0BBC172
:1035E00028EE3CE182E0B9010E94031580E00E94D0
:1035F000D21527EB3CE185E0B9010E94031585E077
:103600000E94B213EFA1F8A58081EFA1F8A59181E6
:10361000692F41E00E94290880E090E0A8ECB2E424
:103620008D8B9E8BAF8BB88F6D897E898F89988D9E
:103630002BEA3AEA4AE250E40E941F02DC01CB0185
:10364000898B9A8BAB8BBC8B69897A898B899C8996
:1036500020E030E040E85FE30E94250488231CF46A
:1036600081E0888B91C069897A898B899C8920E067
:1036700030E04FE753E40E94C50318160CF07BC0FE
:103680006D897E898F89988D20E030E04AE754E487
:103690000E941903DC01CB018C879D87AE87BF8711
:1036A0006C857D858E859F8520E030E04AEF54E46F
:1036B0000E941F02DC01CB0188879987AA87BB87FC
:1036C000688579858A859B8520E030E040E85FE366
:1036D0000E94250488232CF481E090E09F838E8350
:1036E0003FC0688579858A859B8520E03FEF4FE75D
:1036F00057E40E94C50318164CF56C857D858E85B0
:103700009F8520E030E040E251E40E941F02DC018E
:10371000CB01BC01CD010E944900DC01CB019F839C
:103720008E830FC088EC90E09D838C838C819D817B
:103730000197F1F79D838C838E819F8101979F83F1
:103740008E838E819F81009769F724C06885798573
:103750008A859B850E944900DC01CB019F838E8373
:103760008E819F819B838A838A819B810197F1F758
:103770009B838A830FC069897A898B899C890E947F
:103780004900DC01CB01888B8889898389818A95EE
:10379000F1F78983EFA1F8A58081EFA1F8A59181C8
:1037A000692F40E00E9429080BC0898D9A8DAB8D4E
:1037B000BC8D0196A11DB11D898F9A8FAB8FBC8FD7
:1037C0008091900190919101009731F08091920148
:1037D00090919301009761F4898D9A8DAB8DBC8D8A
:1037E000803523EC920720E0A20720E0B207E8F240
:1037F00082E00E94391485E00E94391481E00E9421
:10380000C01480919601909197010097A1F42091A6
:103810009201309193018091900190919101A901C1
:10382000481B590BCA01CC01A0E0B0E08D8F9E8FE0
:10383000AF8FB8A359C0209192013091930180912C
:103840009001909191012817390710F12091920170
:10385000309193018091900190919101A901481BB1
:10386000590BCA019C0140E050E080919601909173
:103870009701CC01A0E0B0E0DC0199278827820FF6
:10388000931FA41FB51F8D8F9E8FAF8FB8A32CC021
:10389000209192013091930180919001909191013A
:1038A0002817390708F520919001309191018091F6
:1038B000920190919301A901481B590BCA019C01E7
:1038C00040E050E08091960190919701CC01A0E0FA
:1038D000B0E0DC0199278827820F931FA41FB51F32
:1038E0008D8F9E8FAF8FB8A36D8D7E8D8F8D98A19C
:1038F0000E94A904DC01CB01BC01CD0120E030E035
:1039000040E050E40E941903DC01CB01BC01CD0171
:1039100026E933E44BE05DE30E941F02DC01CB01AA
:10392000BC01CD010E944900DC01CB01E9A5FAA54B
:1039300091838083109291011092900110929301D3
:103940001092920110929501109294011092970199
:103950001092960102C081E08AA38AA1AA960FB6AE
:10396000F894DEBF0FBECDBFCF91DF910895DF93F6
:10397000CF93CDB7DEB7809198018F5F8093980188
:1039800080919801813069F482E00E94B2130E9414
:10399000C715909391018093900181E00E94D21508
:1039A00014C080919801823081F40E94C7159093D1
:1039B000930180939201809194019091950190934D
:1039C00097018093960110929801CF91DF9108950D
:1039D000DF93CF93CDB7DEB780919401909195019D
:1039E00001969093950180939401CF91DF91089572
:1039F0002F923F924F925F926F927F928F929F92FF
:103A0000AF92BF92CF92DF92EF92FF920F931F93EC
:103A1000CF93DF93CDB7DEB7CA1BDB0B0FB6F8949D
:103A2000DEBF0FBECDBF09942A88398848885F84DD
:103A30006E847D848C849B84AA84B984C884DF804E
:103A4000EE80FD800C811B81AA81B981CE0FD11D32
:103A50000FB6F894DEBF0FBECDBFED010895F89408
:023A6000FFCF96
:103A62000000000000000000000102020303030343
:103A720004040404040404040505050505050505FC
:103A820005050505050505050606060606060606DC
:103A920006060606060606060606060606060606C4
:103AA20006060606060606060707070707070707AC
:103AB2000707070707070707070707070707070794
:103AC2000707070707070707070707070707070784
:103AD2000707070707070707070707070707070774
:103AE200070707070707070708080808080808085C
:103AF2000808080808080808080808080808080844
:103B02000808080808080808080808080808080833
:103B12000808080808080808080808080808080823
:103B22000808080808080808080808080808080813
:103B32000808080808080808080808080808080803
:103B420008080808080808080808080808080808F3
:103B520008080808080808080808080808080808E3
:0A3B62000808080808080808010018
:00000001FF
